{
  "contractName": "TYF",
  "abi": [
    {
      "inputs": [],
      "stateMutability": "nonpayable",
      "type": "constructor"
    },
    {
      "anonymous": false,
      "inputs": [
        {
          "indexed": true,
          "internalType": "address",
          "name": "owner",
          "type": "address"
        },
        {
          "indexed": true,
          "internalType": "address",
          "name": "approved",
          "type": "address"
        },
        {
          "indexed": true,
          "internalType": "uint256",
          "name": "tokenId",
          "type": "uint256"
        }
      ],
      "name": "Approval",
      "type": "event"
    },
    {
      "anonymous": false,
      "inputs": [
        {
          "indexed": true,
          "internalType": "address",
          "name": "owner",
          "type": "address"
        },
        {
          "indexed": true,
          "internalType": "address",
          "name": "operator",
          "type": "address"
        },
        {
          "indexed": false,
          "internalType": "bool",
          "name": "approved",
          "type": "bool"
        }
      ],
      "name": "ApprovalForAll",
      "type": "event"
    },
    {
      "anonymous": false,
      "inputs": [
        {
          "indexed": true,
          "internalType": "address",
          "name": "previousOwner",
          "type": "address"
        },
        {
          "indexed": true,
          "internalType": "address",
          "name": "newOwner",
          "type": "address"
        }
      ],
      "name": "OwnershipTransferred",
      "type": "event"
    },
    {
      "anonymous": false,
      "inputs": [
        {
          "indexed": true,
          "internalType": "address",
          "name": "from",
          "type": "address"
        },
        {
          "indexed": true,
          "internalType": "address",
          "name": "to",
          "type": "address"
        },
        {
          "indexed": true,
          "internalType": "uint256",
          "name": "tokenId",
          "type": "uint256"
        }
      ],
      "name": "Transfer",
      "type": "event"
    },
    {
      "inputs": [],
      "name": "MAX_SUPPLY",
      "outputs": [
        {
          "internalType": "uint256",
          "name": "",
          "type": "uint256"
        }
      ],
      "stateMutability": "view",
      "type": "function",
      "constant": true
    },
    {
      "inputs": [],
      "name": "MAX_SUPPLY_USER",
      "outputs": [
        {
          "internalType": "uint256",
          "name": "",
          "type": "uint256"
        }
      ],
      "stateMutability": "view",
      "type": "function",
      "constant": true
    },
    {
      "inputs": [],
      "name": "admin",
      "outputs": [
        {
          "internalType": "address",
          "name": "",
          "type": "address"
        }
      ],
      "stateMutability": "view",
      "type": "function",
      "constant": true
    },
    {
      "inputs": [
        {
          "internalType": "address",
          "name": "to",
          "type": "address"
        },
        {
          "internalType": "uint256",
          "name": "tokenId",
          "type": "uint256"
        }
      ],
      "name": "approve",
      "outputs": [],
      "stateMutability": "nonpayable",
      "type": "function"
    },
    {
      "inputs": [
        {
          "internalType": "address",
          "name": "owner",
          "type": "address"
        }
      ],
      "name": "balanceOf",
      "outputs": [
        {
          "internalType": "uint256",
          "name": "",
          "type": "uint256"
        }
      ],
      "stateMutability": "view",
      "type": "function",
      "constant": true
    },
    {
      "inputs": [
        {
          "internalType": "address",
          "name": "",
          "type": "address"
        }
      ],
      "name": "contributions",
      "outputs": [
        {
          "internalType": "uint256",
          "name": "",
          "type": "uint256"
        }
      ],
      "stateMutability": "view",
      "type": "function",
      "constant": true
    },
    {
      "inputs": [
        {
          "internalType": "uint256",
          "name": "tokenId",
          "type": "uint256"
        }
      ],
      "name": "getApproved",
      "outputs": [
        {
          "internalType": "address",
          "name": "",
          "type": "address"
        }
      ],
      "stateMutability": "view",
      "type": "function",
      "constant": true
    },
    {
      "inputs": [
        {
          "internalType": "address",
          "name": "owner",
          "type": "address"
        },
        {
          "internalType": "address",
          "name": "operator",
          "type": "address"
        }
      ],
      "name": "isApprovedForAll",
      "outputs": [
        {
          "internalType": "bool",
          "name": "",
          "type": "bool"
        }
      ],
      "stateMutability": "view",
      "type": "function",
      "constant": true
    },
    {
      "inputs": [],
      "name": "minimumContribution",
      "outputs": [
        {
          "internalType": "uint256",
          "name": "",
          "type": "uint256"
        }
      ],
      "stateMutability": "view",
      "type": "function",
      "constant": true
    },
    {
      "inputs": [],
      "name": "name",
      "outputs": [
        {
          "internalType": "string",
          "name": "",
          "type": "string"
        }
      ],
      "stateMutability": "view",
      "type": "function",
      "constant": true
    },
    {
      "inputs": [],
      "name": "owner",
      "outputs": [
        {
          "internalType": "address",
          "name": "",
          "type": "address"
        }
      ],
      "stateMutability": "view",
      "type": "function",
      "constant": true
    },
    {
      "inputs": [
        {
          "internalType": "uint256",
          "name": "tokenId",
          "type": "uint256"
        }
      ],
      "name": "ownerOf",
      "outputs": [
        {
          "internalType": "address",
          "name": "",
          "type": "address"
        }
      ],
      "stateMutability": "view",
      "type": "function",
      "constant": true
    },
    {
      "inputs": [],
      "name": "raisedAmount",
      "outputs": [
        {
          "internalType": "uint256",
          "name": "",
          "type": "uint256"
        }
      ],
      "stateMutability": "view",
      "type": "function",
      "constant": true
    },
    {
      "inputs": [],
      "name": "renounceOwnership",
      "outputs": [],
      "stateMutability": "nonpayable",
      "type": "function"
    },
    {
      "inputs": [
        {
          "internalType": "uint256",
          "name": "",
          "type": "uint256"
        }
      ],
      "name": "requests",
      "outputs": [
        {
          "internalType": "string",
          "name": "description",
          "type": "string"
        },
        {
          "internalType": "uint256",
          "name": "value",
          "type": "uint256"
        },
        {
          "internalType": "address",
          "name": "recipient",
          "type": "address"
        },
        {
          "internalType": "bool",
          "name": "completed",
          "type": "bool"
        },
        {
          "internalType": "uint256",
          "name": "numberOfVoters",
          "type": "uint256"
        }
      ],
      "stateMutability": "view",
      "type": "function",
      "constant": true
    },
    {
      "inputs": [
        {
          "internalType": "address",
          "name": "from",
          "type": "address"
        },
        {
          "internalType": "address",
          "name": "to",
          "type": "address"
        },
        {
          "internalType": "uint256",
          "name": "tokenId",
          "type": "uint256"
        }
      ],
      "name": "safeTransferFrom",
      "outputs": [],
      "stateMutability": "nonpayable",
      "type": "function"
    },
    {
      "inputs": [
        {
          "internalType": "address",
          "name": "from",
          "type": "address"
        },
        {
          "internalType": "address",
          "name": "to",
          "type": "address"
        },
        {
          "internalType": "uint256",
          "name": "tokenId",
          "type": "uint256"
        },
        {
          "internalType": "bytes",
          "name": "data",
          "type": "bytes"
        }
      ],
      "name": "safeTransferFrom",
      "outputs": [],
      "stateMutability": "nonpayable",
      "type": "function"
    },
    {
      "inputs": [
        {
          "internalType": "address",
          "name": "operator",
          "type": "address"
        },
        {
          "internalType": "bool",
          "name": "approved",
          "type": "bool"
        }
      ],
      "name": "setApprovalForAll",
      "outputs": [],
      "stateMutability": "nonpayable",
      "type": "function"
    },
    {
      "inputs": [],
      "name": "symbol",
      "outputs": [
        {
          "internalType": "string",
          "name": "",
          "type": "string"
        }
      ],
      "stateMutability": "view",
      "type": "function",
      "constant": true
    },
    {
      "inputs": [
        {
          "internalType": "uint256",
          "name": "index",
          "type": "uint256"
        }
      ],
      "name": "tokenByIndex",
      "outputs": [
        {
          "internalType": "uint256",
          "name": "",
          "type": "uint256"
        }
      ],
      "stateMutability": "view",
      "type": "function",
      "constant": true
    },
    {
      "inputs": [
        {
          "internalType": "address",
          "name": "owner",
          "type": "address"
        },
        {
          "internalType": "uint256",
          "name": "index",
          "type": "uint256"
        }
      ],
      "name": "tokenOfOwnerByIndex",
      "outputs": [
        {
          "internalType": "uint256",
          "name": "",
          "type": "uint256"
        }
      ],
      "stateMutability": "view",
      "type": "function",
      "constant": true
    },
    {
      "inputs": [],
      "name": "totalContributors",
      "outputs": [
        {
          "internalType": "uint256",
          "name": "",
          "type": "uint256"
        }
      ],
      "stateMutability": "view",
      "type": "function",
      "constant": true
    },
    {
      "inputs": [],
      "name": "totalSupply",
      "outputs": [
        {
          "internalType": "uint256",
          "name": "",
          "type": "uint256"
        }
      ],
      "stateMutability": "view",
      "type": "function",
      "constant": true
    },
    {
      "inputs": [
        {
          "internalType": "address",
          "name": "from",
          "type": "address"
        },
        {
          "internalType": "address",
          "name": "to",
          "type": "address"
        },
        {
          "internalType": "uint256",
          "name": "tokenId",
          "type": "uint256"
        }
      ],
      "name": "transferFrom",
      "outputs": [],
      "stateMutability": "nonpayable",
      "type": "function"
    },
    {
      "inputs": [
        {
          "internalType": "address",
          "name": "newOwner",
          "type": "address"
        }
      ],
      "name": "transferOwnership",
      "outputs": [],
      "stateMutability": "nonpayable",
      "type": "function"
    },
    {
      "inputs": [
        {
          "internalType": "address",
          "name": "to",
          "type": "address"
        },
        {
          "internalType": "string",
          "name": "uri",
          "type": "string"
        }
      ],
      "name": "safeMint",
      "outputs": [],
      "stateMutability": "nonpayable",
      "type": "function"
    },
    {
      "inputs": [
        {
          "internalType": "address",
          "name": "from",
          "type": "address"
        },
        {
          "internalType": "address",
          "name": "to",
          "type": "address"
        },
        {
          "internalType": "uint256",
          "name": "tokenId",
          "type": "uint256"
        }
      ],
      "name": "transferNFT",
      "outputs": [],
      "stateMutability": "nonpayable",
      "type": "function"
    },
    {
      "inputs": [],
      "name": "contribute",
      "outputs": [],
      "stateMutability": "payable",
      "type": "function",
      "payable": true
    },
    {
      "inputs": [],
      "name": "getFundBalance",
      "outputs": [
        {
          "internalType": "uint256",
          "name": "",
          "type": "uint256"
        }
      ],
      "stateMutability": "view",
      "type": "function",
      "constant": true
    },
    {
      "inputs": [],
      "name": "getTotalFundsRaised",
      "outputs": [
        {
          "internalType": "uint256",
          "name": "",
          "type": "uint256"
        }
      ],
      "stateMutability": "view",
      "type": "function",
      "constant": true
    },
    {
      "inputs": [],
      "name": "getUniqueContributors",
      "outputs": [
        {
          "internalType": "uint256",
          "name": "",
          "type": "uint256"
        }
      ],
      "stateMutability": "view",
      "type": "function",
      "constant": true
    },
    {
      "inputs": [],
      "name": "getLengthRequests",
      "outputs": [
        {
          "internalType": "uint256",
          "name": "",
          "type": "uint256"
        }
      ],
      "stateMutability": "view",
      "type": "function",
      "constant": true
    },
    {
      "inputs": [
        {
          "internalType": "string",
          "name": "_description",
          "type": "string"
        },
        {
          "internalType": "address",
          "name": "_recipient",
          "type": "address"
        },
        {
          "internalType": "uint256",
          "name": "_value",
          "type": "uint256"
        }
      ],
      "name": "createSpendingRequest",
      "outputs": [],
      "stateMutability": "nonpayable",
      "type": "function"
    },
    {
      "inputs": [
        {
          "internalType": "uint256",
          "name": "index",
          "type": "uint256"
        }
      ],
      "name": "voteForRequest",
      "outputs": [],
      "stateMutability": "nonpayable",
      "type": "function"
    },
    {
      "inputs": [
        {
          "internalType": "uint256",
          "name": "index",
          "type": "uint256"
        }
      ],
      "name": "makePayment",
      "outputs": [],
      "stateMutability": "nonpayable",
      "type": "function"
    },
    {
      "inputs": [
        {
          "internalType": "uint256",
          "name": "tokenId",
          "type": "uint256"
        }
      ],
      "name": "tokenURI",
      "outputs": [
        {
          "internalType": "string",
          "name": "",
          "type": "string"
        }
      ],
      "stateMutability": "view",
      "type": "function",
      "constant": true
    },
    {
      "inputs": [
        {
          "internalType": "bytes4",
          "name": "interfaceId",
          "type": "bytes4"
        }
      ],
      "name": "supportsInterface",
      "outputs": [
        {
          "internalType": "bool",
          "name": "",
          "type": "bool"
        }
      ],
      "stateMutability": "view",
      "type": "function",
      "constant": true
    }
  ],
  "bytecode": "0x6080604052620f4240600d55600a600e5560006012553480156200002257600080fd5b506040518060400160405280600781526020017f5459462d4e4654000000000000000000000000000000000000000000000000008152506040518060400160405280600381526020017f54594600000000000000000000000000000000000000000000000000000000008152508160009081620000a0919062000499565b508060019081620000b2919062000499565b505050620000d5620000c96200013b60201b60201c565b6200014360201b60201c565b600060118190555033601360006101000a81548173ffffffffffffffffffffffffffffffffffffffff021916908373ffffffffffffffffffffffffffffffffffffffff16021790555062000135600c6200020960201b6200177f1760201c565b62000580565b600033905090565b6000600b60009054906101000a900473ffffffffffffffffffffffffffffffffffffffff16905081600b60006101000a81548173ffffffffffffffffffffffffffffffffffffffff021916908373ffffffffffffffffffffffffffffffffffffffff1602179055508173ffffffffffffffffffffffffffffffffffffffff168173ffffffffffffffffffffffffffffffffffffffff167f8be0079c531659141344cd1fd0a4f28419497f9722a3daafe3b4186f6b6457e060405160405180910390a35050565b6001816000016000828254019250508190555050565b600081519050919050565b7f4e487b7100000000000000000000000000000000000000000000000000000000600052604160045260246000fd5b7f4e487b7100000000000000000000000000000000000000000000000000000000600052602260045260246000fd5b60006002820490506001821680620002a157607f821691505b602082108103620002b757620002b662000259565b5b50919050565b60008190508160005260206000209050919050565b60006020601f8301049050919050565b600082821b905092915050565b600060088302620003217fffffffffffffffffffffffffffffffffffffffffffffffffffffffffffffffff82620002e2565b6200032d8683620002e2565b95508019841693508086168417925050509392505050565b6000819050919050565b6000819050919050565b60006200037a620003746200036e8462000345565b6200034f565b62000345565b9050919050565b6000819050919050565b620003968362000359565b620003ae620003a58262000381565b848454620002ef565b825550505050565b600090565b620003c5620003b6565b620003d28184846200038b565b505050565b5b81811015620003fa57620003ee600082620003bb565b600181019050620003d8565b5050565b601f82111562000449576200041381620002bd565b6200041e84620002d2565b810160208510156200042e578190505b620004466200043d85620002d2565b830182620003d7565b50505b505050565b600082821c905092915050565b60006200046e600019846008026200044e565b1980831691505092915050565b60006200048983836200045b565b9150826002028217905092915050565b620004a4826200021f565b67ffffffffffffffff811115620004c057620004bf6200022a565b5b620004cc825462000288565b620004d9828285620003fe565b600060209050601f831160018114620005115760008415620004fc578287015190505b6200050885826200047b565b86555062000578565b601f1984166200052186620002bd565b60005b828110156200054b5784890151825560018201915060208501945060208101905062000524565b868310156200056b578489015162000567601f8916826200045b565b8355505b6001600288020188555050505b505050505050565b6145f680620005906000396000f3fe60806040526004361061021a5760003560e01c8063715018a611610123578063c59ee1dc116100ab578063dae9e3791161006f578063dae9e379146107dc578063e985e9c514610807578063f251fc8c14610844578063f2fde38b1461086f578063f851a440146108985761021a565b8063c59ee1dc14610718578063c87b56dd14610743578063d01ca19214610780578063d204c45e146107a9578063d7bb99ba146107d25761021a565b806395d89b41116100f257806395d89b4114610645578063a22cb46514610670578063a87e77bb14610699578063b88d4fde146106c4578063be66fc91146106ed5761021a565b8063715018a61461059757806381d12c58146105ae5780638da5cb5b146105ef578063937e09b11461061a5761021a565b806332cb6b0c116101a65780635114cb52116101755780635114cb52146104a25780636352211e146104cb57806369e9cae114610508578063700127ef1461053157806370a082311461055a5761021a565b806332cb6b0c146103d457806342842e0e146103ff57806342e94c90146104285780634f6ccce7146104655761021a565b80630c3e2d2d116101ed5780630c3e2d2d146102ed57806318160ddd1461031857806323b872dd14610343578063299e44681461036c5780632f745c59146103975761021a565b806301ffc9a71461021f57806306fdde031461025c578063081812fc14610287578063095ea7b3146102c4575b600080fd5b34801561022b57600080fd5b5061024660048036038101906102419190612ffa565b6108c3565b6040516102539190613042565b60405180910390f35b34801561026857600080fd5b506102716108d5565b60405161027e91906130ed565b60405180910390f35b34801561029357600080fd5b506102ae60048036038101906102a99190613145565b610967565b6040516102bb91906131b3565b60405180910390f35b3480156102d057600080fd5b506102eb60048036038101906102e691906131fa565b6109ad565b005b3480156102f957600080fd5b50610302610ac4565b60405161030f9190613249565b60405180910390f35b34801561032457600080fd5b5061032d610ace565b60405161033a9190613249565b60405180910390f35b34801561034f57600080fd5b5061036a60048036038101906103659190613264565b610adb565b005b34801561037857600080fd5b50610381610b3b565b60405161038e9190613249565b60405180910390f35b3480156103a357600080fd5b506103be60048036038101906103b991906131fa565b610b41565b6040516103cb9190613249565b60405180910390f35b3480156103e057600080fd5b506103e9610be6565b6040516103f69190613249565b60405180910390f35b34801561040b57600080fd5b5061042660048036038101906104219190613264565b610bec565b005b34801561043457600080fd5b5061044f600480360381019061044a91906132b7565b610c0c565b60405161045c9190613249565b60405180910390f35b34801561047157600080fd5b5061048c60048036038101906104879190613145565b610c24565b6040516104999190613249565b60405180910390f35b3480156104ae57600080fd5b506104c960048036038101906104c49190613145565b610c95565b005b3480156104d757600080fd5b506104f260048036038101906104ed9190613145565b610de5565b6040516104ff91906131b3565b60405180910390f35b34801561051457600080fd5b5061052f600480360381019061052a9190613264565b610e6b565b005b34801561053d57600080fd5b5061055860048036038101906105539190613145565b610f29565b005b34801561056657600080fd5b50610581600480360381019061057c91906132b7565b611072565b60405161058e9190613249565b60405180910390f35b3480156105a357600080fd5b506105ac611129565b005b3480156105ba57600080fd5b506105d560048036038101906105d09190613145565b61113d565b6040516105e69594939291906132e4565b60405180910390f35b3480156105fb57600080fd5b50610604611238565b60405161061191906131b3565b60405180910390f35b34801561062657600080fd5b5061062f611262565b60405161063c9190613249565b60405180910390f35b34801561065157600080fd5b5061065a611268565b60405161066791906130ed565b60405180910390f35b34801561067c57600080fd5b506106976004803603810190610692919061336a565b6112fa565b005b3480156106a557600080fd5b506106ae611310565b6040516106bb9190613249565b60405180910390f35b3480156106d057600080fd5b506106eb60048036038101906106e691906134df565b61131a565b005b3480156106f957600080fd5b5061070261137c565b60405161070f9190613249565b60405180910390f35b34801561072457600080fd5b5061072d611389565b60405161073a9190613249565b60405180910390f35b34801561074f57600080fd5b5061076a60048036038101906107659190613145565b61138f565b60405161077791906130ed565b60405180910390f35b34801561078c57600080fd5b506107a760048036038101906107a29190613603565b6113a1565b005b3480156107b557600080fd5b506107d060048036038101906107cb9190613672565b6114aa565b005b6107da611555565b005b3480156107e857600080fd5b506107f1611634565b6040516107fe9190613249565b60405180910390f35b34801561081357600080fd5b5061082e600480360381019061082991906136ce565b61163c565b60405161083b9190613042565b60405180910390f35b34801561085057600080fd5b506108596116d0565b6040516108669190613249565b60405180910390f35b34801561087b57600080fd5b50610896600480360381019061089191906132b7565b6116d6565b005b3480156108a457600080fd5b506108ad611759565b6040516108ba91906131b3565b60405180910390f35b60006108ce82611795565b9050919050565b6060600080546108e49061373d565b80601f01602080910402602001604051908101604052809291908181526020018280546109109061373d565b801561095d5780601f106109325761010080835404028352916020019161095d565b820191906000526020600020905b81548152906001019060200180831161094057829003601f168201915b5050505050905090565b60006109728261180f565b6004600083815260200190815260200160002060009054906101000a900473ffffffffffffffffffffffffffffffffffffffff169050919050565b60006109b882610de5565b90508073ffffffffffffffffffffffffffffffffffffffff168373ffffffffffffffffffffffffffffffffffffffff1603610a28576040517f08c379a0000000000000000000000000000000000000000000000000000000008152600401610a1f906137e0565b60405180910390fd5b8073ffffffffffffffffffffffffffffffffffffffff16610a4761185a565b73ffffffffffffffffffffffffffffffffffffffff161480610a765750610a7581610a7061185a565b61163c565b5b610ab5576040517f08c379a0000000000000000000000000000000000000000000000000000000008152600401610aac90613872565b60405180910390fd5b610abf8383611862565b505050565b6000601254905090565b6000600880549050905090565b610aec610ae661185a565b8261191b565b610b2b576040517f08c379a0000000000000000000000000000000000000000000000000000000008152600401610b2290613904565b60405180910390fd5b610b368383836119b0565b505050565b600e5481565b6000610b4c83611072565b8210610b8d576040517f08c379a0000000000000000000000000000000000000000000000000000000008152600401610b8490613996565b60405180910390fd5b600660008473ffffffffffffffffffffffffffffffffffffffff1673ffffffffffffffffffffffffffffffffffffffff168152602001908152602001600020600083815260200190815260200160002054905092915050565b600d5481565b610c078383836040518060200160405280600081525061131a565b505050565b600f6020528060005260406000206000915090505481565b6000610c2e610ace565b8210610c6f576040517f08c379a0000000000000000000000000000000000000000000000000000000008152600401610c6690613a28565b60405180910390fd5b60088281548110610c8357610c82613a48565b5b90600052602060002001549050919050565b601360009054906101000a900473ffffffffffffffffffffffffffffffffffffffff1673ffffffffffffffffffffffffffffffffffffffff163373ffffffffffffffffffffffffffffffffffffffff1614610cef57600080fd5b600060148281548110610d0557610d04613a48565b5b90600052602060002090600502019050600015158160020160149054906101000a900460ff16151514610d3757600080fd5b6002601054610d469190613ad5565b816003015411610d5557600080fd5b8060020160009054906101000a900473ffffffffffffffffffffffffffffffffffffffff1673ffffffffffffffffffffffffffffffffffffffff166108fc82600101549081150290604051600060405180830381858888f19350505050158015610dc3573d6000803e3d6000fd5b5060018160020160146101000a81548160ff0219169083151502179055505050565b600080610df183611ca9565b9050600073ffffffffffffffffffffffffffffffffffffffff168173ffffffffffffffffffffffffffffffffffffffff1603610e62576040517f08c379a0000000000000000000000000000000000000000000000000000000008152600401610e5990613b52565b60405180910390fd5b80915050919050565b6000600f60003373ffffffffffffffffffffffffffffffffffffffff1673ffffffffffffffffffffffffffffffffffffffff1681526020019081526020016000205411610eb757600080fd5b6000600f60008473ffffffffffffffffffffffffffffffffffffffff1673ffffffffffffffffffffffffffffffffffffffff1681526020019081526020016000205411610f0357600080fd5b600e54610f0f83611072565b10610f1957600080fd5b610f24838383610bec565b505050565b6000600f60003373ffffffffffffffffffffffffffffffffffffffff1673ffffffffffffffffffffffffffffffffffffffff1681526020019081526020016000205411610f7557600080fd5b600060148281548110610f8b57610f8a613a48565b5b90600052602060002090600502019050600015158160040160003373ffffffffffffffffffffffffffffffffffffffff1673ffffffffffffffffffffffffffffffffffffffff16815260200190815260200160002060009054906101000a900460ff16151514610ffa57600080fd5b60018160040160003373ffffffffffffffffffffffffffffffffffffffff1673ffffffffffffffffffffffffffffffffffffffff16815260200190815260200160002060006101000a81548160ff02191690831515021790555080600301600081548092919061106990613b72565b91905055505050565b60008073ffffffffffffffffffffffffffffffffffffffff168273ffffffffffffffffffffffffffffffffffffffff16036110e2576040517f08c379a00000000000000000000000000000000000000000000000000000000081526004016110d990613c2c565b60405180910390fd5b600360008373ffffffffffffffffffffffffffffffffffffffff1673ffffffffffffffffffffffffffffffffffffffff168152602001908152602001600020549050919050565b611131611ce6565b61113b6000611d64565b565b6014818154811061114d57600080fd5b90600052602060002090600502016000915090508060000180546111709061373d565b80601f016020809104026020016040519081016040528092919081815260200182805461119c9061373d565b80156111e95780601f106111be576101008083540402835291602001916111e9565b820191906000526020600020905b8154815290600101906020018083116111cc57829003601f168201915b5050505050908060010154908060020160009054906101000a900473ffffffffffffffffffffffffffffffffffffffff16908060020160149054906101000a900460ff16908060030154905085565b6000600b60009054906101000a900473ffffffffffffffffffffffffffffffffffffffff16905090565b60115481565b6060600180546112779061373d565b80601f01602080910402602001604051908101604052809291908181526020018280546112a39061373d565b80156112f05780601f106112c5576101008083540402835291602001916112f0565b820191906000526020600020905b8154815290600101906020018083116112d357829003601f168201915b5050505050905090565b61130c61130561185a565b8383611e2a565b5050565b6000601054905090565b61132b61132561185a565b8361191b565b61136a576040517f08c379a000000000000000000000000000000000000000000000000000000000815260040161136190613904565b60405180910390fd5b61137684848484611f96565b50505050565b6000601480549050905090565b60125481565b606061139a82611ff2565b9050919050565b601360009054906101000a900473ffffffffffffffffffffffffffffffffffffffff1673ffffffffffffffffffffffffffffffffffffffff163373ffffffffffffffffffffffffffffffffffffffff16146113fb57600080fd5b600060146001816001815401808255809150500390600052602060002090600502019050838160000190816114309190613df8565b50818160010181905550828160020160006101000a81548173ffffffffffffffffffffffffffffffffffffffff021916908373ffffffffffffffffffffffffffffffffffffffff1602179055506000816003018190555060008160020160146101000a81548160ff02191690831515021790555050505050565b6000600f60003373ffffffffffffffffffffffffffffffffffffffff1673ffffffffffffffffffffffffffffffffffffffff16815260200190815260200160002054116114f657600080fd5b600e5461150233611072565b1061150c57600080fd5b600d54611519600c612104565b111561152457600080fd5b6000611530600c612104565b905061153c8382612112565b6115468183612130565b611550600c61177f565b505050565b601154341161156357600080fd5b6000600f60003373ffffffffffffffffffffffffffffffffffffffff1673ffffffffffffffffffffffffffffffffffffffff16815260200190815260200160002054036115c357601060008154809291906115bd90613b72565b91905055505b34600f60003373ffffffffffffffffffffffffffffffffffffffff1673ffffffffffffffffffffffffffffffffffffffff16815260200190815260200160002060008282546116129190613eca565b92505081905550346012600082825461162b9190613eca565b92505081905550565b600047905090565b6000600560008473ffffffffffffffffffffffffffffffffffffffff1673ffffffffffffffffffffffffffffffffffffffff16815260200190815260200160002060008373ffffffffffffffffffffffffffffffffffffffff1673ffffffffffffffffffffffffffffffffffffffff16815260200190815260200160002060009054906101000a900460ff16905092915050565b60105481565b6116de611ce6565b600073ffffffffffffffffffffffffffffffffffffffff168173ffffffffffffffffffffffffffffffffffffffff160361174d576040517f08c379a000000000000000000000000000000000000000000000000000000000815260040161174490613f70565b60405180910390fd5b61175681611d64565b50565b601360009054906101000a900473ffffffffffffffffffffffffffffffffffffffff1681565b6001816000016000828254019250508190555050565b60007f780e9d63000000000000000000000000000000000000000000000000000000007bffffffffffffffffffffffffffffffffffffffffffffffffffffffff1916827bffffffffffffffffffffffffffffffffffffffffffffffffffffffff1916148061180857506118078261219d565b5b9050919050565b6118188161227f565b611857576040517f08c379a000000000000000000000000000000000000000000000000000000000815260040161184e90613b52565b60405180910390fd5b50565b600033905090565b816004600083815260200190815260200160002060006101000a81548173ffffffffffffffffffffffffffffffffffffffff021916908373ffffffffffffffffffffffffffffffffffffffff160217905550808273ffffffffffffffffffffffffffffffffffffffff166118d583610de5565b73ffffffffffffffffffffffffffffffffffffffff167f8c5be1e5ebec7d5bd14f71427d1e84f3dd0314c0f7b2291e5b200ac8c7c3b92560405160405180910390a45050565b60008061192783610de5565b90508073ffffffffffffffffffffffffffffffffffffffff168473ffffffffffffffffffffffffffffffffffffffff1614806119695750611968818561163c565b5b806119a757508373ffffffffffffffffffffffffffffffffffffffff1661198f84610967565b73ffffffffffffffffffffffffffffffffffffffff16145b91505092915050565b8273ffffffffffffffffffffffffffffffffffffffff166119d082610de5565b73ffffffffffffffffffffffffffffffffffffffff1614611a26576040517f08c379a0000000000000000000000000000000000000000000000000000000008152600401611a1d90614002565b60405180910390fd5b600073ffffffffffffffffffffffffffffffffffffffff168273ffffffffffffffffffffffffffffffffffffffff1603611a95576040517f08c379a0000000000000000000000000000000000000000000000000000000008152600401611a8c90614094565b60405180910390fd5b611aa283838360016122c0565b8273ffffffffffffffffffffffffffffffffffffffff16611ac282610de5565b73ffffffffffffffffffffffffffffffffffffffff1614611b18576040517f08c379a0000000000000000000000000000000000000000000000000000000008152600401611b0f90614002565b60405180910390fd5b6004600082815260200190815260200160002060006101000a81549073ffffffffffffffffffffffffffffffffffffffff02191690556001600360008573ffffffffffffffffffffffffffffffffffffffff1673ffffffffffffffffffffffffffffffffffffffff168152602001908152602001600020600082825403925050819055506001600360008473ffffffffffffffffffffffffffffffffffffffff1673ffffffffffffffffffffffffffffffffffffffff16815260200190815260200160002060008282540192505081905550816002600083815260200190815260200160002060006101000a81548173ffffffffffffffffffffffffffffffffffffffff021916908373ffffffffffffffffffffffffffffffffffffffff160217905550808273ffffffffffffffffffffffffffffffffffffffff168473ffffffffffffffffffffffffffffffffffffffff167fddf252ad1be2c89b69c2b068fc378daa952ba7f163c4a11628f55a4df523b3ef60405160405180910390a4611ca483838360016122d2565b505050565b60006002600083815260200190815260200160002060009054906101000a900473ffffffffffffffffffffffffffffffffffffffff169050919050565b611cee61185a565b73ffffffffffffffffffffffffffffffffffffffff16611d0c611238565b73ffffffffffffffffffffffffffffffffffffffff1614611d62576040517f08c379a0000000000000000000000000000000000000000000000000000000008152600401611d5990614100565b60405180910390fd5b565b6000600b60009054906101000a900473ffffffffffffffffffffffffffffffffffffffff16905081600b60006101000a81548173ffffffffffffffffffffffffffffffffffffffff021916908373ffffffffffffffffffffffffffffffffffffffff1602179055508173ffffffffffffffffffffffffffffffffffffffff168173ffffffffffffffffffffffffffffffffffffffff167f8be0079c531659141344cd1fd0a4f28419497f9722a3daafe3b4186f6b6457e060405160405180910390a35050565b8173ffffffffffffffffffffffffffffffffffffffff168373ffffffffffffffffffffffffffffffffffffffff1603611e98576040517f08c379a0000000000000000000000000000000000000000000000000000000008152600401611e8f9061416c565b60405180910390fd5b80600560008573ffffffffffffffffffffffffffffffffffffffff1673ffffffffffffffffffffffffffffffffffffffff16815260200190815260200160002060008473ffffffffffffffffffffffffffffffffffffffff1673ffffffffffffffffffffffffffffffffffffffff16815260200190815260200160002060006101000a81548160ff0219169083151502179055508173ffffffffffffffffffffffffffffffffffffffff168373ffffffffffffffffffffffffffffffffffffffff167f17307eab39ab6107e8899845ad3d59bd9653f200f220920489ca2b5937696c3183604051611f899190613042565b60405180910390a3505050565b611fa18484846119b0565b611fad848484846122d8565b611fec576040517f08c379a0000000000000000000000000000000000000000000000000000000008152600401611fe3906141fe565b60405180910390fd5b50505050565b6060611ffd8261180f565b6000600a6000848152602001908152602001600020805461201d9061373d565b80601f01602080910402602001604051908101604052809291908181526020018280546120499061373d565b80156120965780601f1061206b57610100808354040283529160200191612096565b820191906000526020600020905b81548152906001019060200180831161207957829003601f168201915b5050505050905060006120a761245f565b905060008151036120bc5781925050506120ff565b6000825111156120f15780826040516020016120d992919061425a565b604051602081830303815290604052925050506120ff565b6120fa84612476565b925050505b919050565b600081600001549050919050565b61212c8282604051806020016040528060008152506124de565b5050565b6121398261227f565b612178576040517f08c379a000000000000000000000000000000000000000000000000000000000815260040161216f906142f0565b60405180910390fd5b80600a600084815260200190815260200160002090816121989190613df8565b505050565b60007f80ac58cd000000000000000000000000000000000000000000000000000000007bffffffffffffffffffffffffffffffffffffffffffffffffffffffff1916827bffffffffffffffffffffffffffffffffffffffffffffffffffffffff1916148061226857507f5b5e139f000000000000000000000000000000000000000000000000000000007bffffffffffffffffffffffffffffffffffffffffffffffffffffffff1916827bffffffffffffffffffffffffffffffffffffffffffffffffffffffff1916145b80612278575061227782612539565b5b9050919050565b60008073ffffffffffffffffffffffffffffffffffffffff166122a183611ca9565b73ffffffffffffffffffffffffffffffffffffffff1614159050919050565b6122cc848484846125a3565b50505050565b50505050565b60006122f98473ffffffffffffffffffffffffffffffffffffffff16612701565b15612452578373ffffffffffffffffffffffffffffffffffffffff1663150b7a0261232261185a565b8786866040518563ffffffff1660e01b81526004016123449493929190614365565b6020604051808303816000875af192505050801561238057506040513d601f19601f8201168201806040525081019061237d91906143c6565b60015b612402573d80600081146123b0576040519150601f19603f3d011682016040523d82523d6000602084013e6123b5565b606091505b5060008151036123fa576040517f08c379a00000000000000000000000000000000000000000000000000000000081526004016123f1906141fe565b60405180910390fd5b805181602001fd5b63150b7a0260e01b7bffffffffffffffffffffffffffffffffffffffffffffffffffffffff1916817bffffffffffffffffffffffffffffffffffffffffffffffffffffffff191614915050612457565b600190505b949350505050565b606060405180602001604052806000815250905090565b60606124818261180f565b600061248b61245f565b905060008151116124ab57604051806020016040528060008152506124d6565b806124b584612724565b6040516020016124c692919061425a565b6040516020818303038152906040525b915050919050565b6124e883836127f2565b6124f560008484846122d8565b612534576040517f08c379a000000000000000000000000000000000000000000000000000000000815260040161252b906141fe565b60405180910390fd5b505050565b60007f01ffc9a7000000000000000000000000000000000000000000000000000000007bffffffffffffffffffffffffffffffffffffffffffffffffffffffff1916827bffffffffffffffffffffffffffffffffffffffffffffffffffffffff1916149050919050565b6125af84848484612a0f565b60018111156125f3576040517f08c379a00000000000000000000000000000000000000000000000000000000081526004016125ea90614465565b60405180910390fd5b6000829050600073ffffffffffffffffffffffffffffffffffffffff168573ffffffffffffffffffffffffffffffffffffffff160361263a5761263581612b35565b612679565b8373ffffffffffffffffffffffffffffffffffffffff168573ffffffffffffffffffffffffffffffffffffffff1614612678576126778582612b7e565b5b5b600073ffffffffffffffffffffffffffffffffffffffff168473ffffffffffffffffffffffffffffffffffffffff16036126bb576126b681612ceb565b6126fa565b8473ffffffffffffffffffffffffffffffffffffffff168473ffffffffffffffffffffffffffffffffffffffff16146126f9576126f88482612dbc565b5b5b5050505050565b6000808273ffffffffffffffffffffffffffffffffffffffff163b119050919050565b60606000600161273384612e3b565b01905060008167ffffffffffffffff811115612752576127516133b4565b5b6040519080825280601f01601f1916602001820160405280156127845781602001600182028036833780820191505090505b509050600082602001820190505b6001156127e7578080600190039150507f3031323334353637383961626364656600000000000000000000000000000000600a86061a8153600a85816127db576127da613a77565b5b04945060008503612792575b819350505050919050565b600073ffffffffffffffffffffffffffffffffffffffff168273ffffffffffffffffffffffffffffffffffffffff1603612861576040517f08c379a0000000000000000000000000000000000000000000000000000000008152600401612858906144d1565b60405180910390fd5b61286a8161227f565b156128aa576040517f08c379a00000000000000000000000000000000000000000000000000000000081526004016128a19061453d565b60405180910390fd5b6128b86000838360016122c0565b6128c18161227f565b15612901576040517f08c379a00000000000000000000000000000000000000000000000000000000081526004016128f89061453d565b60405180910390fd5b6001600360008473ffffffffffffffffffffffffffffffffffffffff1673ffffffffffffffffffffffffffffffffffffffff16815260200190815260200160002060008282540192505081905550816002600083815260200190815260200160002060006101000a81548173ffffffffffffffffffffffffffffffffffffffff021916908373ffffffffffffffffffffffffffffffffffffffff160217905550808273ffffffffffffffffffffffffffffffffffffffff16600073ffffffffffffffffffffffffffffffffffffffff167fddf252ad1be2c89b69c2b068fc378daa952ba7f163c4a11628f55a4df523b3ef60405160405180910390a4612a0b6000838360016122d2565b5050565b6001811115612b2f57600073ffffffffffffffffffffffffffffffffffffffff168473ffffffffffffffffffffffffffffffffffffffff1614612aa35780600360008673ffffffffffffffffffffffffffffffffffffffff1673ffffffffffffffffffffffffffffffffffffffff1681526020019081526020016000206000828254612a9b919061455d565b925050819055505b600073ffffffffffffffffffffffffffffffffffffffff168373ffffffffffffffffffffffffffffffffffffffff1614612b2e5780600360008573ffffffffffffffffffffffffffffffffffffffff1673ffffffffffffffffffffffffffffffffffffffff1681526020019081526020016000206000828254612b269190613eca565b925050819055505b5b50505050565b6008805490506009600083815260200190815260200160002081905550600881908060018154018082558091505060019003906000526020600020016000909190919091505550565b60006001612b8b84611072565b612b95919061455d565b9050600060076000848152602001908152602001600020549050818114612c7a576000600660008673ffffffffffffffffffffffffffffffffffffffff1673ffffffffffffffffffffffffffffffffffffffff168152602001908152602001600020600084815260200190815260200160002054905080600660008773ffffffffffffffffffffffffffffffffffffffff1673ffffffffffffffffffffffffffffffffffffffff168152602001908152602001600020600084815260200190815260200160002081905550816007600083815260200190815260200160002081905550505b6007600084815260200190815260200160002060009055600660008573ffffffffffffffffffffffffffffffffffffffff1673ffffffffffffffffffffffffffffffffffffffff16815260200190815260200160002060008381526020019081526020016000206000905550505050565b60006001600880549050612cff919061455d565b9050600060096000848152602001908152602001600020549050600060088381548110612d2f57612d2e613a48565b5b906000526020600020015490508060088381548110612d5157612d50613a48565b5b906000526020600020018190555081600960008381526020019081526020016000208190555060096000858152602001908152602001600020600090556008805480612da057612d9f614591565b5b6001900381819060005260206000200160009055905550505050565b6000612dc783611072565b905081600660008573ffffffffffffffffffffffffffffffffffffffff1673ffffffffffffffffffffffffffffffffffffffff168152602001908152602001600020600083815260200190815260200160002081905550806007600084815260200190815260200160002081905550505050565b600080600090507a184f03e93ff9f4daa797ed6e38ed64bf6a1f0100000000000000008310612e99577a184f03e93ff9f4daa797ed6e38ed64bf6a1f0100000000000000008381612e8f57612e8e613a77565b5b0492506040810190505b6d04ee2d6d415b85acef81000000008310612ed6576d04ee2d6d415b85acef81000000008381612ecc57612ecb613a77565b5b0492506020810190505b662386f26fc100008310612f0557662386f26fc100008381612efb57612efa613a77565b5b0492506010810190505b6305f5e1008310612f2e576305f5e1008381612f2457612f23613a77565b5b0492506008810190505b6127108310612f53576127108381612f4957612f48613a77565b5b0492506004810190505b60648310612f765760648381612f6c57612f6b613a77565b5b0492506002810190505b600a8310612f85576001810190505b80915050919050565b6000604051905090565b600080fd5b600080fd5b60007fffffffff0000000000000000000000000000000000000000000000000000000082169050919050565b612fd781612fa2565b8114612fe257600080fd5b50565b600081359050612ff481612fce565b92915050565b6000602082840312156130105761300f612f98565b5b600061301e84828501612fe5565b91505092915050565b60008115159050919050565b61303c81613027565b82525050565b60006020820190506130576000830184613033565b92915050565b600081519050919050565b600082825260208201905092915050565b60005b8381101561309757808201518184015260208101905061307c565b60008484015250505050565b6000601f19601f8301169050919050565b60006130bf8261305d565b6130c98185613068565b93506130d9818560208601613079565b6130e2816130a3565b840191505092915050565b6000602082019050818103600083015261310781846130b4565b905092915050565b6000819050919050565b6131228161310f565b811461312d57600080fd5b50565b60008135905061313f81613119565b92915050565b60006020828403121561315b5761315a612f98565b5b600061316984828501613130565b91505092915050565b600073ffffffffffffffffffffffffffffffffffffffff82169050919050565b600061319d82613172565b9050919050565b6131ad81613192565b82525050565b60006020820190506131c860008301846131a4565b92915050565b6131d781613192565b81146131e257600080fd5b50565b6000813590506131f4816131ce565b92915050565b6000806040838503121561321157613210612f98565b5b600061321f858286016131e5565b925050602061323085828601613130565b9150509250929050565b6132438161310f565b82525050565b600060208201905061325e600083018461323a565b92915050565b60008060006060848603121561327d5761327c612f98565b5b600061328b868287016131e5565b935050602061329c868287016131e5565b92505060406132ad86828701613130565b9150509250925092565b6000602082840312156132cd576132cc612f98565b5b60006132db848285016131e5565b91505092915050565b600060a08201905081810360008301526132fe81886130b4565b905061330d602083018761323a565b61331a60408301866131a4565b6133276060830185613033565b613334608083018461323a565b9695505050505050565b61334781613027565b811461335257600080fd5b50565b6000813590506133648161333e565b92915050565b6000806040838503121561338157613380612f98565b5b600061338f858286016131e5565b92505060206133a085828601613355565b9150509250929050565b600080fd5b600080fd5b7f4e487b7100000000000000000000000000000000000000000000000000000000600052604160045260246000fd5b6133ec826130a3565b810181811067ffffffffffffffff8211171561340b5761340a6133b4565b5b80604052505050565b600061341e612f8e565b905061342a82826133e3565b919050565b600067ffffffffffffffff82111561344a576134496133b4565b5b613453826130a3565b9050602081019050919050565b82818337600083830152505050565b600061348261347d8461342f565b613414565b90508281526020810184848401111561349e5761349d6133af565b5b6134a9848285613460565b509392505050565b600082601f8301126134c6576134c56133aa565b5b81356134d684826020860161346f565b91505092915050565b600080600080608085870312156134f9576134f8612f98565b5b6000613507878288016131e5565b9450506020613518878288016131e5565b935050604061352987828801613130565b925050606085013567ffffffffffffffff81111561354a57613549612f9d565b5b613556878288016134b1565b91505092959194509250565b600067ffffffffffffffff82111561357d5761357c6133b4565b5b613586826130a3565b9050602081019050919050565b60006135a66135a184613562565b613414565b9050828152602081018484840111156135c2576135c16133af565b5b6135cd848285613460565b509392505050565b600082601f8301126135ea576135e96133aa565b5b81356135fa848260208601613593565b91505092915050565b60008060006060848603121561361c5761361b612f98565b5b600084013567ffffffffffffffff81111561363a57613639612f9d565b5b613646868287016135d5565b9350506020613657868287016131e5565b925050604061366886828701613130565b9150509250925092565b6000806040838503121561368957613688612f98565b5b6000613697858286016131e5565b925050602083013567ffffffffffffffff8111156136b8576136b7612f9d565b5b6136c4858286016135d5565b9150509250929050565b600080604083850312156136e5576136e4612f98565b5b60006136f3858286016131e5565b9250506020613704858286016131e5565b9150509250929050565b7f4e487b7100000000000000000000000000000000000000000000000000000000600052602260045260246000fd5b6000600282049050600182168061375557607f821691505b6020821081036137685761376761370e565b5b50919050565b7f4552433732313a20617070726f76616c20746f2063757272656e74206f776e6560008201527f7200000000000000000000000000000000000000000000000000000000000000602082015250565b60006137ca602183613068565b91506137d58261376e565b604082019050919050565b600060208201905081810360008301526137f9816137bd565b9050919050565b7f4552433732313a20617070726f76652063616c6c6572206973206e6f7420746f60008201527f6b656e206f776e6572206f7220617070726f76656420666f7220616c6c000000602082015250565b600061385c603d83613068565b915061386782613800565b604082019050919050565b6000602082019050818103600083015261388b8161384f565b9050919050565b7f4552433732313a2063616c6c6572206973206e6f7420746f6b656e206f776e6560008201527f72206f7220617070726f76656400000000000000000000000000000000000000602082015250565b60006138ee602d83613068565b91506138f982613892565b604082019050919050565b6000602082019050818103600083015261391d816138e1565b9050919050565b7f455243373231456e756d657261626c653a206f776e657220696e646578206f7560008201527f74206f6620626f756e6473000000000000000000000000000000000000000000602082015250565b6000613980602b83613068565b915061398b82613924565b604082019050919050565b600060208201905081810360008301526139af81613973565b9050919050565b7f455243373231456e756d657261626c653a20676c6f62616c20696e646578206f60008201527f7574206f6620626f756e64730000000000000000000000000000000000000000602082015250565b6000613a12602c83613068565b9150613a1d826139b6565b604082019050919050565b60006020820190508181036000830152613a4181613a05565b9050919050565b7f4e487b7100000000000000000000000000000000000000000000000000000000600052603260045260246000fd5b7f4e487b7100000000000000000000000000000000000000000000000000000000600052601260045260246000fd5b7f4e487b7100000000000000000000000000000000000000000000000000000000600052601160045260246000fd5b6000613ae08261310f565b9150613aeb8361310f565b925082613afb57613afa613a77565b5b828204905092915050565b7f4552433732313a20696e76616c696420746f6b656e2049440000000000000000600082015250565b6000613b3c601883613068565b9150613b4782613b06565b602082019050919050565b60006020820190508181036000830152613b6b81613b2f565b9050919050565b6000613b7d8261310f565b91507fffffffffffffffffffffffffffffffffffffffffffffffffffffffffffffffff8203613baf57613bae613aa6565b5b600182019050919050565b7f4552433732313a2061646472657373207a65726f206973206e6f74206120766160008201527f6c6964206f776e65720000000000000000000000000000000000000000000000602082015250565b6000613c16602983613068565b9150613c2182613bba565b604082019050919050565b60006020820190508181036000830152613c4581613c09565b9050919050565b60008190508160005260206000209050919050565b60006020601f8301049050919050565b600082821b905092915050565b600060088302613cae7fffffffffffffffffffffffffffffffffffffffffffffffffffffffffffffffff82613c71565b613cb88683613c71565b95508019841693508086168417925050509392505050565b6000819050919050565b6000613cf5613cf0613ceb8461310f565b613cd0565b61310f565b9050919050565b6000819050919050565b613d0f83613cda565b613d23613d1b82613cfc565b848454613c7e565b825550505050565b600090565b613d38613d2b565b613d43818484613d06565b505050565b5b81811015613d6757613d5c600082613d30565b600181019050613d49565b5050565b601f821115613dac57613d7d81613c4c565b613d8684613c61565b81016020851015613d95578190505b613da9613da185613c61565b830182613d48565b50505b505050565b600082821c905092915050565b6000613dcf60001984600802613db1565b1980831691505092915050565b6000613de88383613dbe565b9150826002028217905092915050565b613e018261305d565b67ffffffffffffffff811115613e1a57613e196133b4565b5b613e24825461373d565b613e2f828285613d6b565b600060209050601f831160018114613e625760008415613e50578287015190505b613e5a8582613ddc565b865550613ec2565b601f198416613e7086613c4c565b60005b82811015613e9857848901518255600182019150602085019450602081019050613e73565b86831015613eb55784890151613eb1601f891682613dbe565b8355505b6001600288020188555050505b505050505050565b6000613ed58261310f565b9150613ee08361310f565b9250828201905080821115613ef857613ef7613aa6565b5b92915050565b7f4f776e61626c653a206e6577206f776e657220697320746865207a65726f206160008201527f6464726573730000000000000000000000000000000000000000000000000000602082015250565b6000613f5a602683613068565b9150613f6582613efe565b604082019050919050565b60006020820190508181036000830152613f8981613f4d565b9050919050565b7f4552433732313a207472616e736665722066726f6d20696e636f72726563742060008201527f6f776e6572000000000000000000000000000000000000000000000000000000602082015250565b6000613fec602583613068565b9150613ff782613f90565b604082019050919050565b6000602082019050818103600083015261401b81613fdf565b9050919050565b7f4552433732313a207472616e7366657220746f20746865207a65726f2061646460008201527f7265737300000000000000000000000000000000000000000000000000000000602082015250565b600061407e602483613068565b915061408982614022565b604082019050919050565b600060208201905081810360008301526140ad81614071565b9050919050565b7f4f776e61626c653a2063616c6c6572206973206e6f7420746865206f776e6572600082015250565b60006140ea602083613068565b91506140f5826140b4565b602082019050919050565b60006020820190508181036000830152614119816140dd565b9050919050565b7f4552433732313a20617070726f766520746f2063616c6c657200000000000000600082015250565b6000614156601983613068565b915061416182614120565b602082019050919050565b6000602082019050818103600083015261418581614149565b9050919050565b7f4552433732313a207472616e7366657220746f206e6f6e20455243373231526560008201527f63656976657220696d706c656d656e7465720000000000000000000000000000602082015250565b60006141e8603283613068565b91506141f38261418c565b604082019050919050565b60006020820190508181036000830152614217816141db565b9050919050565b600081905092915050565b60006142348261305d565b61423e818561421e565b935061424e818560208601613079565b80840191505092915050565b60006142668285614229565b91506142728284614229565b91508190509392505050565b7f45524337323155524953746f726167653a2055524920736574206f66206e6f6e60008201527f6578697374656e7420746f6b656e000000000000000000000000000000000000602082015250565b60006142da602e83613068565b91506142e58261427e565b604082019050919050565b60006020820190508181036000830152614309816142cd565b9050919050565b600081519050919050565b600082825260208201905092915050565b600061433782614310565b614341818561431b565b9350614351818560208601613079565b61435a816130a3565b840191505092915050565b600060808201905061437a60008301876131a4565b61438760208301866131a4565b614394604083018561323a565b81810360608301526143a6818461432c565b905095945050505050565b6000815190506143c081612fce565b92915050565b6000602082840312156143dc576143db612f98565b5b60006143ea848285016143b1565b91505092915050565b7f455243373231456e756d657261626c653a20636f6e736563757469766520747260008201527f616e7366657273206e6f7420737570706f727465640000000000000000000000602082015250565b600061444f603583613068565b915061445a826143f3565b604082019050919050565b6000602082019050818103600083015261447e81614442565b9050919050565b7f4552433732313a206d696e7420746f20746865207a65726f2061646472657373600082015250565b60006144bb602083613068565b91506144c682614485565b602082019050919050565b600060208201905081810360008301526144ea816144ae565b9050919050565b7f4552433732313a20746f6b656e20616c7265616479206d696e74656400000000600082015250565b6000614527601c83613068565b9150614532826144f1565b602082019050919050565b600060208201905081810360008301526145568161451a565b9050919050565b60006145688261310f565b91506145738361310f565b925082820390508181111561458b5761458a613aa6565b5b92915050565b7f4e487b7100000000000000000000000000000000000000000000000000000000600052603160045260246000fdfea2646970667358221220cbcc7f6a9397305a092aa563e944b7e59e79b0592fffffc0980edc837637bf5664736f6c63430008110033",
  "immutableReferences": {},
  "source": "//SPDX-License-Identifier: MIT\npragma solidity 0.8.17;\n\nimport \"../node_modules/@openzeppelin/contracts/token/ERC721/ERC721.sol\";\nimport \"../node_modules/@openzeppelin/contracts/token/ERC721/extensions/ERC721Enumerable.sol\";\nimport \"../node_modules/@openzeppelin/contracts/token/ERC721/extensions/ERC721URIStorage.sol\";\nimport \"../node_modules/@openzeppelin/contracts/access/Ownable.sol\";\nimport \"../node_modules/@openzeppelin/contracts/utils/Counters.sol\";\n\ncontract TYF is ERC721, ERC721Enumerable, ERC721URIStorage, Ownable {\n    using Counters for Counters.Counter;\n    Counters.Counter private _tokenIdCounter;\n    uint256 public MAX_SUPPLY = 1000000; // Max supply of NFT\n    uint256 public MAX_SUPPLY_USER = 10; // per user\n    mapping(address => uint256) public contributions;\n    uint256 public totalContributors;\n    uint256 public minimumContribution;\n    uint256 public raisedAmount = 0;\n    address public admin;\n    struct Request {\n        string description;\n        uint256 value;\n        address recipient;\n        bool completed;\n        uint256 numberOfVoters;\n        mapping(address => bool) voters;\n    }\n    Request[] public requests;\n\n    modifier onlyAdmin() {\n        require(msg.sender == admin);\n        _;\n    }\n\n    modifier contributor() {\n        require(contributions[msg.sender] > 0);\n        _;\n    }\n\n    constructor() ERC721(\"TYF-NFT\", \"TYF\"){\n        minimumContribution = 0;\n        admin = msg.sender;\n        _tokenIdCounter.increment(); // Start mint at ID 1\n    }\n\n    function safeMint(address to, string memory uri) public contributor {\n        require(balanceOf(msg.sender) < MAX_SUPPLY_USER);\n        require(_tokenIdCounter.current() <= (MAX_SUPPLY));\n        uint256 tokenId = _tokenIdCounter.current();\n        _safeMint(to, tokenId);\n        _setTokenURI(tokenId, uri);\n        _tokenIdCounter.increment();\n    }\n\n    function transferNFT(address from, address to, uint256 tokenId) public contributor {\n        require(contributions[to] > 0);\n        require(balanceOf(to) < MAX_SUPPLY_USER);\n        safeTransferFrom(from, to, tokenId);\n    }\n\n    function contribute() public payable {\n        require(msg.value > minimumContribution);\n        if (contributions[msg.sender] == 0) {\n            totalContributors++;\n        }\n        contributions[msg.sender] += msg.value;\n        raisedAmount += msg.value;\n    }\n\n    function getFundBalance() public view returns (uint256) {\n        return address(this).balance;\n    }\n\n    function getTotalFundsRaised() public view returns (uint256) {\n        return raisedAmount;\n    }\n\n    function getUniqueContributors() public view returns (uint256) {\n        return totalContributors;\n    }\n\n    function getLengthRequests() public view returns (uint256) {\n        return requests.length;\n    }\n\n    function createSpendingRequest(\n        string memory _description,\n        address _recipient,\n        uint256 _value\n    ) public onlyAdmin {\n        Request storage newRequest = requests.push();\n        newRequest.description = _description;\n        newRequest.value = _value;\n        newRequest.recipient = _recipient;\n        newRequest.numberOfVoters = 0;\n        newRequest.completed = false;\n    }\n\n    function voteForRequest(uint256 index) public contributor {\n        Request storage thisRequest = requests[index];\n        require(thisRequest.voters[msg.sender] == false);\n        thisRequest.voters[msg.sender] = true;\n        thisRequest.numberOfVoters++;\n    }\n\n    function makePayment(uint256 index) public onlyAdmin {\n        Request storage thisRequest = requests[index];\n        require(thisRequest.completed == false);\n        require(thisRequest.numberOfVoters > totalContributors / 2); //more than 50% voted\n        payable(thisRequest.recipient).transfer(thisRequest.value);\n        thisRequest.completed = true;\n    }\n\n    // The following functions are overrides required by Solidity.\n    function _beforeTokenTransfer(address from, address to, uint256 tokenId, uint256 batchSize) internal override(ERC721, ERC721Enumerable) {\n        super._beforeTokenTransfer(from, to, tokenId, batchSize);\n    }\n\n    function _burn(uint256 tokenId) internal override(ERC721, ERC721URIStorage) {\n        super._burn(tokenId);\n    }\n\n    function tokenURI(uint256 tokenId) public view override(ERC721, ERC721URIStorage) returns (string memory) {\n        return super.tokenURI(tokenId);\n    }\n\n    function supportsInterface(bytes4 interfaceId) public view override(ERC721, ERC721Enumerable) returns (bool) {\n        return super.supportsInterface(interfaceId);\n    }\n}\n",
  "sourcePath": "/Users/naman/n/UBcourses/Blockchain 526/blockchain-D-app/tyf-contract/contracts/TYF.sol",
  "compiler": {
    "name": "solc",
    "version": "0.8.17+commit.8df45f5f.Emscripten.clang"
  },
  "schemaVersion": "3.4.10",
  "updatedAt": "2022-12-08T23:12:49.152Z",
  "networkType": "ethereum",
  "devdoc": {
    "kind": "dev",
    "methods": {
      "approve(address,uint256)": {
        "details": "See {IERC721-approve}."
      },
      "balanceOf(address)": {
        "details": "See {IERC721-balanceOf}."
      },
      "getApproved(uint256)": {
        "details": "See {IERC721-getApproved}."
      },
      "isApprovedForAll(address,address)": {
        "details": "See {IERC721-isApprovedForAll}."
      },
      "name()": {
        "details": "See {IERC721Metadata-name}."
      },
      "owner()": {
        "details": "Returns the address of the current owner."
      },
      "ownerOf(uint256)": {
        "details": "See {IERC721-ownerOf}."
      },
      "renounceOwnership()": {
        "details": "Leaves the contract without owner. It will not be possible to call `onlyOwner` functions anymore. Can only be called by the current owner. NOTE: Renouncing ownership will leave the contract without an owner, thereby removing any functionality that is only available to the owner."
      },
      "safeTransferFrom(address,address,uint256)": {
        "details": "See {IERC721-safeTransferFrom}."
      },
      "safeTransferFrom(address,address,uint256,bytes)": {
        "details": "See {IERC721-safeTransferFrom}."
      },
      "setApprovalForAll(address,bool)": {
        "details": "See {IERC721-setApprovalForAll}."
      },
      "symbol()": {
        "details": "See {IERC721Metadata-symbol}."
      },
      "tokenByIndex(uint256)": {
        "details": "See {IERC721Enumerable-tokenByIndex}."
      },
      "tokenOfOwnerByIndex(address,uint256)": {
        "details": "See {IERC721Enumerable-tokenOfOwnerByIndex}."
      },
      "totalSupply()": {
        "details": "See {IERC721Enumerable-totalSupply}."
      },
      "transferFrom(address,address,uint256)": {
        "details": "See {IERC721-transferFrom}."
      },
      "transferOwnership(address)": {
        "details": "Transfers ownership of the contract to a new account (`newOwner`). Can only be called by the current owner."
      }
    },
    "version": 1
  },
  "userdoc": {
    "kind": "user",
    "methods": {},
    "version": 1
  }
}