{
  "contractName": "TYF",
  "abi": [
    {
      "inputs": [],
      "stateMutability": "nonpayable",
      "type": "constructor"
    },
    {
      "anonymous": false,
      "inputs": [
        {
          "indexed": true,
          "internalType": "address",
          "name": "owner",
          "type": "address"
        },
        {
          "indexed": true,
          "internalType": "address",
          "name": "approved",
          "type": "address"
        },
        {
          "indexed": true,
          "internalType": "uint256",
          "name": "tokenId",
          "type": "uint256"
        }
      ],
      "name": "Approval",
      "type": "event"
    },
    {
      "anonymous": false,
      "inputs": [
        {
          "indexed": true,
          "internalType": "address",
          "name": "owner",
          "type": "address"
        },
        {
          "indexed": true,
          "internalType": "address",
          "name": "operator",
          "type": "address"
        },
        {
          "indexed": false,
          "internalType": "bool",
          "name": "approved",
          "type": "bool"
        }
      ],
      "name": "ApprovalForAll",
      "type": "event"
    },
    {
      "anonymous": false,
      "inputs": [
        {
          "indexed": true,
          "internalType": "address",
          "name": "previousOwner",
          "type": "address"
        },
        {
          "indexed": true,
          "internalType": "address",
          "name": "newOwner",
          "type": "address"
        }
      ],
      "name": "OwnershipTransferred",
      "type": "event"
    },
    {
      "anonymous": false,
      "inputs": [
        {
          "indexed": true,
          "internalType": "address",
          "name": "from",
          "type": "address"
        },
        {
          "indexed": true,
          "internalType": "address",
          "name": "to",
          "type": "address"
        },
        {
          "indexed": true,
          "internalType": "uint256",
          "name": "tokenId",
          "type": "uint256"
        }
      ],
      "name": "Transfer",
      "type": "event"
    },
    {
      "inputs": [],
      "name": "MAX_SUPPLY",
      "outputs": [
        {
          "internalType": "uint256",
          "name": "",
          "type": "uint256"
        }
      ],
      "stateMutability": "view",
      "type": "function",
      "constant": true
    },
    {
      "inputs": [],
      "name": "MAX_SUPPLY_USER",
      "outputs": [
        {
          "internalType": "uint256",
          "name": "",
          "type": "uint256"
        }
      ],
      "stateMutability": "view",
      "type": "function",
      "constant": true
    },
    {
      "inputs": [],
      "name": "admin",
      "outputs": [
        {
          "internalType": "address",
          "name": "",
          "type": "address"
        }
      ],
      "stateMutability": "view",
      "type": "function",
      "constant": true
    },
    {
      "inputs": [
        {
          "internalType": "address",
          "name": "to",
          "type": "address"
        },
        {
          "internalType": "uint256",
          "name": "tokenId",
          "type": "uint256"
        }
      ],
      "name": "approve",
      "outputs": [],
      "stateMutability": "nonpayable",
      "type": "function"
    },
    {
      "inputs": [
        {
          "internalType": "address",
          "name": "owner",
          "type": "address"
        }
      ],
      "name": "balanceOf",
      "outputs": [
        {
          "internalType": "uint256",
          "name": "",
          "type": "uint256"
        }
      ],
      "stateMutability": "view",
      "type": "function",
      "constant": true
    },
    {
      "inputs": [
        {
          "internalType": "address",
          "name": "",
          "type": "address"
        }
      ],
      "name": "contributions",
      "outputs": [
        {
          "internalType": "uint256",
          "name": "",
          "type": "uint256"
        }
      ],
      "stateMutability": "view",
      "type": "function",
      "constant": true
    },
    {
      "inputs": [
        {
          "internalType": "uint256",
          "name": "tokenId",
          "type": "uint256"
        }
      ],
      "name": "getApproved",
      "outputs": [
        {
          "internalType": "address",
          "name": "",
          "type": "address"
        }
      ],
      "stateMutability": "view",
      "type": "function",
      "constant": true
    },
    {
      "inputs": [
        {
          "internalType": "address",
          "name": "owner",
          "type": "address"
        },
        {
          "internalType": "address",
          "name": "operator",
          "type": "address"
        }
      ],
      "name": "isApprovedForAll",
      "outputs": [
        {
          "internalType": "bool",
          "name": "",
          "type": "bool"
        }
      ],
      "stateMutability": "view",
      "type": "function",
      "constant": true
    },
    {
      "inputs": [],
      "name": "minimumContribution",
      "outputs": [
        {
          "internalType": "uint256",
          "name": "",
          "type": "uint256"
        }
      ],
      "stateMutability": "view",
      "type": "function",
      "constant": true
    },
    {
      "inputs": [],
      "name": "name",
      "outputs": [
        {
          "internalType": "string",
          "name": "",
          "type": "string"
        }
      ],
      "stateMutability": "view",
      "type": "function",
      "constant": true
    },
    {
      "inputs": [],
      "name": "owner",
      "outputs": [
        {
          "internalType": "address",
          "name": "",
          "type": "address"
        }
      ],
      "stateMutability": "view",
      "type": "function",
      "constant": true
    },
    {
      "inputs": [
        {
          "internalType": "uint256",
          "name": "tokenId",
          "type": "uint256"
        }
      ],
      "name": "ownerOf",
      "outputs": [
        {
          "internalType": "address",
          "name": "",
          "type": "address"
        }
      ],
      "stateMutability": "view",
      "type": "function",
      "constant": true
    },
    {
      "inputs": [],
      "name": "raisedAmount",
      "outputs": [
        {
          "internalType": "uint256",
          "name": "",
          "type": "uint256"
        }
      ],
      "stateMutability": "view",
      "type": "function",
      "constant": true
    },
    {
      "inputs": [],
      "name": "renounceOwnership",
      "outputs": [],
      "stateMutability": "nonpayable",
      "type": "function"
    },
    {
      "inputs": [
        {
          "internalType": "uint256",
          "name": "",
          "type": "uint256"
        }
      ],
      "name": "requests",
      "outputs": [
        {
          "internalType": "string",
          "name": "description",
          "type": "string"
        },
        {
          "internalType": "uint256",
          "name": "value",
          "type": "uint256"
        },
        {
          "internalType": "address",
          "name": "recipient",
          "type": "address"
        },
        {
          "internalType": "bool",
          "name": "completed",
          "type": "bool"
        },
        {
          "internalType": "uint256",
          "name": "numberOfVoters",
          "type": "uint256"
        }
      ],
      "stateMutability": "view",
      "type": "function",
      "constant": true
    },
    {
      "inputs": [
        {
          "internalType": "address",
          "name": "from",
          "type": "address"
        },
        {
          "internalType": "address",
          "name": "to",
          "type": "address"
        },
        {
          "internalType": "uint256",
          "name": "tokenId",
          "type": "uint256"
        }
      ],
      "name": "safeTransferFrom",
      "outputs": [],
      "stateMutability": "nonpayable",
      "type": "function"
    },
    {
      "inputs": [
        {
          "internalType": "address",
          "name": "from",
          "type": "address"
        },
        {
          "internalType": "address",
          "name": "to",
          "type": "address"
        },
        {
          "internalType": "uint256",
          "name": "tokenId",
          "type": "uint256"
        },
        {
          "internalType": "bytes",
          "name": "data",
          "type": "bytes"
        }
      ],
      "name": "safeTransferFrom",
      "outputs": [],
      "stateMutability": "nonpayable",
      "type": "function"
    },
    {
      "inputs": [
        {
          "internalType": "address",
          "name": "operator",
          "type": "address"
        },
        {
          "internalType": "bool",
          "name": "approved",
          "type": "bool"
        }
      ],
      "name": "setApprovalForAll",
      "outputs": [],
      "stateMutability": "nonpayable",
      "type": "function"
    },
    {
      "inputs": [],
      "name": "symbol",
      "outputs": [
        {
          "internalType": "string",
          "name": "",
          "type": "string"
        }
      ],
      "stateMutability": "view",
      "type": "function",
      "constant": true
    },
    {
      "inputs": [
        {
          "internalType": "uint256",
          "name": "index",
          "type": "uint256"
        }
      ],
      "name": "tokenByIndex",
      "outputs": [
        {
          "internalType": "uint256",
          "name": "",
          "type": "uint256"
        }
      ],
      "stateMutability": "view",
      "type": "function",
      "constant": true
    },
    {
      "inputs": [
        {
          "internalType": "address",
          "name": "owner",
          "type": "address"
        },
        {
          "internalType": "uint256",
          "name": "index",
          "type": "uint256"
        }
      ],
      "name": "tokenOfOwnerByIndex",
      "outputs": [
        {
          "internalType": "uint256",
          "name": "",
          "type": "uint256"
        }
      ],
      "stateMutability": "view",
      "type": "function",
      "constant": true
    },
    {
      "inputs": [],
      "name": "totalContributors",
      "outputs": [
        {
          "internalType": "uint256",
          "name": "",
          "type": "uint256"
        }
      ],
      "stateMutability": "view",
      "type": "function",
      "constant": true
    },
    {
      "inputs": [],
      "name": "totalSupply",
      "outputs": [
        {
          "internalType": "uint256",
          "name": "",
          "type": "uint256"
        }
      ],
      "stateMutability": "view",
      "type": "function",
      "constant": true
    },
    {
      "inputs": [
        {
          "internalType": "address",
          "name": "from",
          "type": "address"
        },
        {
          "internalType": "address",
          "name": "to",
          "type": "address"
        },
        {
          "internalType": "uint256",
          "name": "tokenId",
          "type": "uint256"
        }
      ],
      "name": "transferFrom",
      "outputs": [],
      "stateMutability": "nonpayable",
      "type": "function"
    },
    {
      "inputs": [
        {
          "internalType": "address",
          "name": "newOwner",
          "type": "address"
        }
      ],
      "name": "transferOwnership",
      "outputs": [],
      "stateMutability": "nonpayable",
      "type": "function"
    },
    {
      "inputs": [
        {
          "internalType": "address",
          "name": "to",
          "type": "address"
        },
        {
          "internalType": "string",
          "name": "uri",
          "type": "string"
        }
      ],
      "name": "safeMint",
      "outputs": [],
      "stateMutability": "nonpayable",
      "type": "function"
    },
    {
      "inputs": [],
      "name": "contribute",
      "outputs": [],
      "stateMutability": "payable",
      "type": "function",
      "payable": true
    },
    {
      "inputs": [],
      "name": "getFundBalance",
      "outputs": [
        {
          "internalType": "uint256",
          "name": "",
          "type": "uint256"
        }
      ],
      "stateMutability": "view",
      "type": "function",
      "constant": true
    },
    {
      "inputs": [],
      "name": "getTotalFundsRaised",
      "outputs": [
        {
          "internalType": "uint256",
          "name": "",
          "type": "uint256"
        }
      ],
      "stateMutability": "view",
      "type": "function",
      "constant": true
    },
    {
      "inputs": [],
      "name": "getUniqueContributors",
      "outputs": [
        {
          "internalType": "uint256",
          "name": "",
          "type": "uint256"
        }
      ],
      "stateMutability": "view",
      "type": "function",
      "constant": true
    },
    {
      "inputs": [],
      "name": "getLengthRequests",
      "outputs": [
        {
          "internalType": "uint256",
          "name": "",
          "type": "uint256"
        }
      ],
      "stateMutability": "view",
      "type": "function",
      "constant": true
    },
    {
      "inputs": [
        {
          "internalType": "string",
          "name": "_description",
          "type": "string"
        },
        {
          "internalType": "address",
          "name": "_recipient",
          "type": "address"
        },
        {
          "internalType": "uint256",
          "name": "_value",
          "type": "uint256"
        }
      ],
      "name": "createSpendingRequest",
      "outputs": [],
      "stateMutability": "nonpayable",
      "type": "function"
    },
    {
      "inputs": [
        {
          "internalType": "uint256",
          "name": "index",
          "type": "uint256"
        }
      ],
      "name": "voteForRequest",
      "outputs": [],
      "stateMutability": "nonpayable",
      "type": "function"
    },
    {
      "inputs": [
        {
          "internalType": "uint256",
          "name": "index",
          "type": "uint256"
        }
      ],
      "name": "makePayment",
      "outputs": [],
      "stateMutability": "nonpayable",
      "type": "function"
    },
    {
      "inputs": [
        {
          "internalType": "uint256",
          "name": "tokenId",
          "type": "uint256"
        }
      ],
      "name": "tokenURI",
      "outputs": [
        {
          "internalType": "string",
          "name": "",
          "type": "string"
        }
      ],
      "stateMutability": "view",
      "type": "function",
      "constant": true
    },
    {
      "inputs": [
        {
          "internalType": "bytes4",
          "name": "interfaceId",
          "type": "bytes4"
        }
      ],
      "name": "supportsInterface",
      "outputs": [
        {
          "internalType": "bool",
          "name": "",
          "type": "bool"
        }
      ],
      "stateMutability": "view",
      "type": "function",
      "constant": true
    }
  ],
  "bytecode": "0x6080604052620f4240600d556002600e5560006012553480156200002257600080fd5b506040518060400160405280600781526020017f5459462d4e4654000000000000000000000000000000000000000000000000008152506040518060400160405280600381526020017f54594600000000000000000000000000000000000000000000000000000000008152508160009081620000a0919062000499565b508060019081620000b2919062000499565b505050620000d5620000c96200013b60201b60201c565b6200014360201b60201c565b600060118190555033601360006101000a81548173ffffffffffffffffffffffffffffffffffffffff021916908373ffffffffffffffffffffffffffffffffffffffff16021790555062000135600c6200020960201b620016f91760201c565b62000580565b600033905090565b6000600b60009054906101000a900473ffffffffffffffffffffffffffffffffffffffff16905081600b60006101000a81548173ffffffffffffffffffffffffffffffffffffffff021916908373ffffffffffffffffffffffffffffffffffffffff1602179055508173ffffffffffffffffffffffffffffffffffffffff168173ffffffffffffffffffffffffffffffffffffffff167f8be0079c531659141344cd1fd0a4f28419497f9722a3daafe3b4186f6b6457e060405160405180910390a35050565b6001816000016000828254019250508190555050565b600081519050919050565b7f4e487b7100000000000000000000000000000000000000000000000000000000600052604160045260246000fd5b7f4e487b7100000000000000000000000000000000000000000000000000000000600052602260045260246000fd5b60006002820490506001821680620002a157607f821691505b602082108103620002b757620002b662000259565b5b50919050565b60008190508160005260206000209050919050565b60006020601f8301049050919050565b600082821b905092915050565b600060088302620003217fffffffffffffffffffffffffffffffffffffffffffffffffffffffffffffffff82620002e2565b6200032d8683620002e2565b95508019841693508086168417925050509392505050565b6000819050919050565b6000819050919050565b60006200037a620003746200036e8462000345565b6200034f565b62000345565b9050919050565b6000819050919050565b620003968362000359565b620003ae620003a58262000381565b848454620002ef565b825550505050565b600090565b620003c5620003b6565b620003d28184846200038b565b505050565b5b81811015620003fa57620003ee600082620003bb565b600181019050620003d8565b5050565b601f82111562000449576200041381620002bd565b6200041e84620002d2565b810160208510156200042e578190505b620004466200043d85620002d2565b830182620003d7565b50505b505050565b600082821c905092915050565b60006200046e600019846008026200044e565b1980831691505092915050565b60006200048983836200045b565b9150826002028217905092915050565b620004a4826200021f565b67ffffffffffffffff811115620004c057620004bf6200022a565b5b620004cc825462000288565b620004d9828285620003fe565b600060209050601f831160018114620005115760008415620004fc578287015190505b6200050885826200047b565b86555062000578565b601f1984166200052186620002bd565b60005b828110156200054b5784890151825560018201915060208501945060208101905062000524565b868310156200056b578489015162000567601f8916826200045b565b8355505b6001600288020188555050505b505050505050565b61464880620005906000396000f3fe60806040526004361061020f5760003560e01c806381d12c5811610118578063c87b56dd116100a0578063dae9e3791161006f578063dae9e379146107a8578063e985e9c5146107d3578063f251fc8c14610810578063f2fde38b1461083b578063f851a440146108645761020f565b8063c87b56dd1461070f578063d01ca1921461074c578063d204c45e14610775578063d7bb99ba1461079e5761020f565b8063a22cb465116100e7578063a22cb4651461063c578063a87e77bb14610665578063b88d4fde14610690578063be66fc91146106b9578063c59ee1dc146106e45761020f565b806381d12c581461057a5780638da5cb5b146105bb578063937e09b1146105e657806395d89b41146106115761020f565b806332cb6b0c1161019b5780635114cb521161016a5780635114cb52146104975780636352211e146104c0578063700127ef146104fd57806370a0823114610526578063715018a6146105635761020f565b806332cb6b0c146103c957806342842e0e146103f457806342e94c901461041d5780634f6ccce71461045a5761020f565b80630c3e2d2d116101e25780630c3e2d2d146102e257806318160ddd1461030d57806323b872dd14610338578063299e4468146103615780632f745c591461038c5761020f565b806301ffc9a71461021457806306fdde0314610251578063081812fc1461027c578063095ea7b3146102b9575b600080fd5b34801561022057600080fd5b5061023b60048036038101906102369190612f74565b61088f565b6040516102489190612fbc565b60405180910390f35b34801561025d57600080fd5b506102666108a1565b6040516102739190613067565b60405180910390f35b34801561028857600080fd5b506102a3600480360381019061029e91906130bf565b610933565b6040516102b0919061312d565b60405180910390f35b3480156102c557600080fd5b506102e060048036038101906102db9190613174565b610979565b005b3480156102ee57600080fd5b506102f7610a90565b60405161030491906131c3565b60405180910390f35b34801561031957600080fd5b50610322610a9a565b60405161032f91906131c3565b60405180910390f35b34801561034457600080fd5b5061035f600480360381019061035a91906131de565b610aa7565b005b34801561036d57600080fd5b50610376610b07565b60405161038391906131c3565b60405180910390f35b34801561039857600080fd5b506103b360048036038101906103ae9190613174565b610b0d565b6040516103c091906131c3565b60405180910390f35b3480156103d557600080fd5b506103de610bb2565b6040516103eb91906131c3565b60405180910390f35b34801561040057600080fd5b5061041b600480360381019061041691906131de565b610bb8565b005b34801561042957600080fd5b50610444600480360381019061043f9190613231565b610bd8565b60405161045191906131c3565b60405180910390f35b34801561046657600080fd5b50610481600480360381019061047c91906130bf565b610bf0565b60405161048e91906131c3565b60405180910390f35b3480156104a357600080fd5b506104be60048036038101906104b991906130bf565b610c61565b005b3480156104cc57600080fd5b506104e760048036038101906104e291906130bf565b610db1565b6040516104f4919061312d565b60405180910390f35b34801561050957600080fd5b50610524600480360381019061051f91906130bf565b610e37565b005b34801561053257600080fd5b5061054d60048036038101906105489190613231565b610f80565b60405161055a91906131c3565b60405180910390f35b34801561056f57600080fd5b50610578611037565b005b34801561058657600080fd5b506105a1600480360381019061059c91906130bf565b61104b565b6040516105b295949392919061325e565b60405180910390f35b3480156105c757600080fd5b506105d0611146565b6040516105dd919061312d565b60405180910390f35b3480156105f257600080fd5b506105fb611170565b60405161060891906131c3565b60405180910390f35b34801561061d57600080fd5b50610626611176565b6040516106339190613067565b60405180910390f35b34801561064857600080fd5b50610663600480360381019061065e91906132e4565b611208565b005b34801561067157600080fd5b5061067a61121e565b60405161068791906131c3565b60405180910390f35b34801561069c57600080fd5b506106b760048036038101906106b29190613459565b611228565b005b3480156106c557600080fd5b506106ce61128a565b6040516106db91906131c3565b60405180910390f35b3480156106f057600080fd5b506106f9611297565b60405161070691906131c3565b60405180910390f35b34801561071b57600080fd5b50610736600480360381019061073191906130bf565b61129d565b6040516107439190613067565b60405180910390f35b34801561075857600080fd5b50610773600480360381019061076e919061357d565b6112af565b005b34801561078157600080fd5b5061079c600480360381019061079791906135ec565b6113b8565b005b6107a66114cf565b005b3480156107b457600080fd5b506107bd6115ae565b6040516107ca91906131c3565b60405180910390f35b3480156107df57600080fd5b506107fa60048036038101906107f59190613648565b6115b6565b6040516108079190612fbc565b60405180910390f35b34801561081c57600080fd5b5061082561164a565b60405161083291906131c3565b60405180910390f35b34801561084757600080fd5b50610862600480360381019061085d9190613231565b611650565b005b34801561087057600080fd5b506108796116d3565b604051610886919061312d565b60405180910390f35b600061089a8261170f565b9050919050565b6060600080546108b0906136b7565b80601f01602080910402602001604051908101604052809291908181526020018280546108dc906136b7565b80156109295780601f106108fe57610100808354040283529160200191610929565b820191906000526020600020905b81548152906001019060200180831161090c57829003601f168201915b5050505050905090565b600061093e82611789565b6004600083815260200190815260200160002060009054906101000a900473ffffffffffffffffffffffffffffffffffffffff169050919050565b600061098482610db1565b90508073ffffffffffffffffffffffffffffffffffffffff168373ffffffffffffffffffffffffffffffffffffffff16036109f4576040517f08c379a00000000000000000000000000000000000000000000000000000000081526004016109eb9061375a565b60405180910390fd5b8073ffffffffffffffffffffffffffffffffffffffff16610a136117d4565b73ffffffffffffffffffffffffffffffffffffffff161480610a425750610a4181610a3c6117d4565b6115b6565b5b610a81576040517f08c379a0000000000000000000000000000000000000000000000000000000008152600401610a78906137ec565b60405180910390fd5b610a8b83836117dc565b505050565b6000601254905090565b6000600880549050905090565b610ab8610ab26117d4565b82611895565b610af7576040517f08c379a0000000000000000000000000000000000000000000000000000000008152600401610aee9061387e565b60405180910390fd5b610b0283838361192a565b505050565b600e5481565b6000610b1883610f80565b8210610b59576040517f08c379a0000000000000000000000000000000000000000000000000000000008152600401610b5090613910565b60405180910390fd5b600660008473ffffffffffffffffffffffffffffffffffffffff1673ffffffffffffffffffffffffffffffffffffffff168152602001908152602001600020600083815260200190815260200160002054905092915050565b600d5481565b610bd383838360405180602001604052806000815250611228565b505050565b600f6020528060005260406000206000915090505481565b6000610bfa610a9a565b8210610c3b576040517f08c379a0000000000000000000000000000000000000000000000000000000008152600401610c32906139a2565b60405180910390fd5b60088281548110610c4f57610c4e6139c2565b5b90600052602060002001549050919050565b601360009054906101000a900473ffffffffffffffffffffffffffffffffffffffff1673ffffffffffffffffffffffffffffffffffffffff163373ffffffffffffffffffffffffffffffffffffffff1614610cbb57600080fd5b600060148281548110610cd157610cd06139c2565b5b90600052602060002090600502019050600015158160020160149054906101000a900460ff16151514610d0357600080fd5b6002601054610d129190613a4f565b816003015411610d2157600080fd5b8060020160009054906101000a900473ffffffffffffffffffffffffffffffffffffffff1673ffffffffffffffffffffffffffffffffffffffff166108fc82600101549081150290604051600060405180830381858888f19350505050158015610d8f573d6000803e3d6000fd5b5060018160020160146101000a81548160ff0219169083151502179055505050565b600080610dbd83611c23565b9050600073ffffffffffffffffffffffffffffffffffffffff168173ffffffffffffffffffffffffffffffffffffffff1603610e2e576040517f08c379a0000000000000000000000000000000000000000000000000000000008152600401610e2590613acc565b60405180910390fd5b80915050919050565b6000600f60003373ffffffffffffffffffffffffffffffffffffffff1673ffffffffffffffffffffffffffffffffffffffff1681526020019081526020016000205411610e8357600080fd5b600060148281548110610e9957610e986139c2565b5b90600052602060002090600502019050600015158160040160003373ffffffffffffffffffffffffffffffffffffffff1673ffffffffffffffffffffffffffffffffffffffff16815260200190815260200160002060009054906101000a900460ff16151514610f0857600080fd5b60018160040160003373ffffffffffffffffffffffffffffffffffffffff1673ffffffffffffffffffffffffffffffffffffffff16815260200190815260200160002060006101000a81548160ff021916908315150217905550806003016000815480929190610f7790613aec565b91905055505050565b60008073ffffffffffffffffffffffffffffffffffffffff168273ffffffffffffffffffffffffffffffffffffffff1603610ff0576040517f08c379a0000000000000000000000000000000000000000000000000000000008152600401610fe790613ba6565b60405180910390fd5b600360008373ffffffffffffffffffffffffffffffffffffffff1673ffffffffffffffffffffffffffffffffffffffff168152602001908152602001600020549050919050565b61103f611c60565b6110496000611cde565b565b6014818154811061105b57600080fd5b906000526020600020906005020160009150905080600001805461107e906136b7565b80601f01602080910402602001604051908101604052809291908181526020018280546110aa906136b7565b80156110f75780601f106110cc576101008083540402835291602001916110f7565b820191906000526020600020905b8154815290600101906020018083116110da57829003601f168201915b5050505050908060010154908060020160009054906101000a900473ffffffffffffffffffffffffffffffffffffffff16908060020160149054906101000a900460ff16908060030154905085565b6000600b60009054906101000a900473ffffffffffffffffffffffffffffffffffffffff16905090565b60115481565b606060018054611185906136b7565b80601f01602080910402602001604051908101604052809291908181526020018280546111b1906136b7565b80156111fe5780601f106111d3576101008083540402835291602001916111fe565b820191906000526020600020905b8154815290600101906020018083116111e157829003601f168201915b5050505050905090565b61121a6112136117d4565b8383611da4565b5050565b6000601054905090565b6112396112336117d4565b83611895565b611278576040517f08c379a000000000000000000000000000000000000000000000000000000000815260040161126f9061387e565b60405180910390fd5b61128484848484611f10565b50505050565b6000601480549050905090565b60125481565b60606112a882611f6c565b9050919050565b601360009054906101000a900473ffffffffffffffffffffffffffffffffffffffff1673ffffffffffffffffffffffffffffffffffffffff163373ffffffffffffffffffffffffffffffffffffffff161461130957600080fd5b6000601460018160018154018082558091505003906000526020600020906005020190508381600001908161133e9190613d72565b50818160010181905550828160020160006101000a81548173ffffffffffffffffffffffffffffffffffffffff021916908373ffffffffffffffffffffffffffffffffffffffff1602179055506000816003018190555060008160020160146101000a81548160ff02191690831515021790555050505050565b6000600f60003373ffffffffffffffffffffffffffffffffffffffff1673ffffffffffffffffffffffffffffffffffffffff168152602001908152602001600020541161140457600080fd5b600e5461141033610f80565b10611450576040517f08c379a000000000000000000000000000000000000000000000000000000000815260040161144790613e90565b60405180910390fd5b600d5461145d600c61207e565b111561149e576040517f08c379a000000000000000000000000000000000000000000000000000000000815260040161149590613efc565b60405180910390fd5b60006114aa600c61207e565b90506114b6838261208c565b6114c081836120aa565b6114ca600c6116f9565b505050565b60115434116114dd57600080fd5b6000600f60003373ffffffffffffffffffffffffffffffffffffffff1673ffffffffffffffffffffffffffffffffffffffff168152602001908152602001600020540361153d576010600081548092919061153790613aec565b91905055505b34600f60003373ffffffffffffffffffffffffffffffffffffffff1673ffffffffffffffffffffffffffffffffffffffff168152602001908152602001600020600082825461158c9190613f1c565b9250508190555034601260008282546115a59190613f1c565b92505081905550565b600047905090565b6000600560008473ffffffffffffffffffffffffffffffffffffffff1673ffffffffffffffffffffffffffffffffffffffff16815260200190815260200160002060008373ffffffffffffffffffffffffffffffffffffffff1673ffffffffffffffffffffffffffffffffffffffff16815260200190815260200160002060009054906101000a900460ff16905092915050565b60105481565b611658611c60565b600073ffffffffffffffffffffffffffffffffffffffff168173ffffffffffffffffffffffffffffffffffffffff16036116c7576040517f08c379a00000000000000000000000000000000000000000000000000000000081526004016116be90613fc2565b60405180910390fd5b6116d081611cde565b50565b601360009054906101000a900473ffffffffffffffffffffffffffffffffffffffff1681565b6001816000016000828254019250508190555050565b60007f780e9d63000000000000000000000000000000000000000000000000000000007bffffffffffffffffffffffffffffffffffffffffffffffffffffffff1916827bffffffffffffffffffffffffffffffffffffffffffffffffffffffff19161480611782575061178182612117565b5b9050919050565b611792816121f9565b6117d1576040517f08c379a00000000000000000000000000000000000000000000000000000000081526004016117c890613acc565b60405180910390fd5b50565b600033905090565b816004600083815260200190815260200160002060006101000a81548173ffffffffffffffffffffffffffffffffffffffff021916908373ffffffffffffffffffffffffffffffffffffffff160217905550808273ffffffffffffffffffffffffffffffffffffffff1661184f83610db1565b73ffffffffffffffffffffffffffffffffffffffff167f8c5be1e5ebec7d5bd14f71427d1e84f3dd0314c0f7b2291e5b200ac8c7c3b92560405160405180910390a45050565b6000806118a183610db1565b90508073ffffffffffffffffffffffffffffffffffffffff168473ffffffffffffffffffffffffffffffffffffffff1614806118e357506118e281856115b6565b5b8061192157508373ffffffffffffffffffffffffffffffffffffffff1661190984610933565b73ffffffffffffffffffffffffffffffffffffffff16145b91505092915050565b8273ffffffffffffffffffffffffffffffffffffffff1661194a82610db1565b73ffffffffffffffffffffffffffffffffffffffff16146119a0576040517f08c379a000000000000000000000000000000000000000000000000000000000815260040161199790614054565b60405180910390fd5b600073ffffffffffffffffffffffffffffffffffffffff168273ffffffffffffffffffffffffffffffffffffffff1603611a0f576040517f08c379a0000000000000000000000000000000000000000000000000000000008152600401611a06906140e6565b60405180910390fd5b611a1c838383600161223a565b8273ffffffffffffffffffffffffffffffffffffffff16611a3c82610db1565b73ffffffffffffffffffffffffffffffffffffffff1614611a92576040517f08c379a0000000000000000000000000000000000000000000000000000000008152600401611a8990614054565b60405180910390fd5b6004600082815260200190815260200160002060006101000a81549073ffffffffffffffffffffffffffffffffffffffff02191690556001600360008573ffffffffffffffffffffffffffffffffffffffff1673ffffffffffffffffffffffffffffffffffffffff168152602001908152602001600020600082825403925050819055506001600360008473ffffffffffffffffffffffffffffffffffffffff1673ffffffffffffffffffffffffffffffffffffffff16815260200190815260200160002060008282540192505081905550816002600083815260200190815260200160002060006101000a81548173ffffffffffffffffffffffffffffffffffffffff021916908373ffffffffffffffffffffffffffffffffffffffff160217905550808273ffffffffffffffffffffffffffffffffffffffff168473ffffffffffffffffffffffffffffffffffffffff167fddf252ad1be2c89b69c2b068fc378daa952ba7f163c4a11628f55a4df523b3ef60405160405180910390a4611c1e838383600161224c565b505050565b60006002600083815260200190815260200160002060009054906101000a900473ffffffffffffffffffffffffffffffffffffffff169050919050565b611c686117d4565b73ffffffffffffffffffffffffffffffffffffffff16611c86611146565b73ffffffffffffffffffffffffffffffffffffffff1614611cdc576040517f08c379a0000000000000000000000000000000000000000000000000000000008152600401611cd390614152565b60405180910390fd5b565b6000600b60009054906101000a900473ffffffffffffffffffffffffffffffffffffffff16905081600b60006101000a81548173ffffffffffffffffffffffffffffffffffffffff021916908373ffffffffffffffffffffffffffffffffffffffff1602179055508173ffffffffffffffffffffffffffffffffffffffff168173ffffffffffffffffffffffffffffffffffffffff167f8be0079c531659141344cd1fd0a4f28419497f9722a3daafe3b4186f6b6457e060405160405180910390a35050565b8173ffffffffffffffffffffffffffffffffffffffff168373ffffffffffffffffffffffffffffffffffffffff1603611e12576040517f08c379a0000000000000000000000000000000000000000000000000000000008152600401611e09906141be565b60405180910390fd5b80600560008573ffffffffffffffffffffffffffffffffffffffff1673ffffffffffffffffffffffffffffffffffffffff16815260200190815260200160002060008473ffffffffffffffffffffffffffffffffffffffff1673ffffffffffffffffffffffffffffffffffffffff16815260200190815260200160002060006101000a81548160ff0219169083151502179055508173ffffffffffffffffffffffffffffffffffffffff168373ffffffffffffffffffffffffffffffffffffffff167f17307eab39ab6107e8899845ad3d59bd9653f200f220920489ca2b5937696c3183604051611f039190612fbc565b60405180910390a3505050565b611f1b84848461192a565b611f2784848484612252565b611f66576040517f08c379a0000000000000000000000000000000000000000000000000000000008152600401611f5d90614250565b60405180910390fd5b50505050565b6060611f7782611789565b6000600a60008481526020019081526020016000208054611f97906136b7565b80601f0160208091040260200160405190810160405280929190818152602001828054611fc3906136b7565b80156120105780601f10611fe557610100808354040283529160200191612010565b820191906000526020600020905b815481529060010190602001808311611ff357829003601f168201915b5050505050905060006120216123d9565b90506000815103612036578192505050612079565b60008251111561206b5780826040516020016120539291906142ac565b60405160208183030381529060405292505050612079565b612074846123f0565b925050505b919050565b600081600001549050919050565b6120a6828260405180602001604052806000815250612458565b5050565b6120b3826121f9565b6120f2576040517f08c379a00000000000000000000000000000000000000000000000000000000081526004016120e990614342565b60405180910390fd5b80600a600084815260200190815260200160002090816121129190613d72565b505050565b60007f80ac58cd000000000000000000000000000000000000000000000000000000007bffffffffffffffffffffffffffffffffffffffffffffffffffffffff1916827bffffffffffffffffffffffffffffffffffffffffffffffffffffffff191614806121e257507f5b5e139f000000000000000000000000000000000000000000000000000000007bffffffffffffffffffffffffffffffffffffffffffffffffffffffff1916827bffffffffffffffffffffffffffffffffffffffffffffffffffffffff1916145b806121f257506121f1826124b3565b5b9050919050565b60008073ffffffffffffffffffffffffffffffffffffffff1661221b83611c23565b73ffffffffffffffffffffffffffffffffffffffff1614159050919050565b6122468484848461251d565b50505050565b50505050565b60006122738473ffffffffffffffffffffffffffffffffffffffff1661267b565b156123cc578373ffffffffffffffffffffffffffffffffffffffff1663150b7a0261229c6117d4565b8786866040518563ffffffff1660e01b81526004016122be94939291906143b7565b6020604051808303816000875af19250505080156122fa57506040513d601f19601f820116820180604052508101906122f79190614418565b60015b61237c573d806000811461232a576040519150601f19603f3d011682016040523d82523d6000602084013e61232f565b606091505b506000815103612374576040517f08c379a000000000000000000000000000000000000000000000000000000000815260040161236b90614250565b60405180910390fd5b805181602001fd5b63150b7a0260e01b7bffffffffffffffffffffffffffffffffffffffffffffffffffffffff1916817bffffffffffffffffffffffffffffffffffffffffffffffffffffffff1916149150506123d1565b600190505b949350505050565b606060405180602001604052806000815250905090565b60606123fb82611789565b60006124056123d9565b905060008151116124255760405180602001604052806000815250612450565b8061242f8461269e565b6040516020016124409291906142ac565b6040516020818303038152906040525b915050919050565b612462838361276c565b61246f6000848484612252565b6124ae576040517f08c379a00000000000000000000000000000000000000000000000000000000081526004016124a590614250565b60405180910390fd5b505050565b60007f01ffc9a7000000000000000000000000000000000000000000000000000000007bffffffffffffffffffffffffffffffffffffffffffffffffffffffff1916827bffffffffffffffffffffffffffffffffffffffffffffffffffffffff1916149050919050565b61252984848484612989565b600181111561256d576040517f08c379a0000000000000000000000000000000000000000000000000000000008152600401612564906144b7565b60405180910390fd5b6000829050600073ffffffffffffffffffffffffffffffffffffffff168573ffffffffffffffffffffffffffffffffffffffff16036125b4576125af81612aaf565b6125f3565b8373ffffffffffffffffffffffffffffffffffffffff168573ffffffffffffffffffffffffffffffffffffffff16146125f2576125f18582612af8565b5b5b600073ffffffffffffffffffffffffffffffffffffffff168473ffffffffffffffffffffffffffffffffffffffff16036126355761263081612c65565b612674565b8473ffffffffffffffffffffffffffffffffffffffff168473ffffffffffffffffffffffffffffffffffffffff1614612673576126728482612d36565b5b5b5050505050565b6000808273ffffffffffffffffffffffffffffffffffffffff163b119050919050565b6060600060016126ad84612db5565b01905060008167ffffffffffffffff8111156126cc576126cb61332e565b5b6040519080825280601f01601f1916602001820160405280156126fe5781602001600182028036833780820191505090505b509050600082602001820190505b600115612761578080600190039150507f3031323334353637383961626364656600000000000000000000000000000000600a86061a8153600a8581612755576127546139f1565b5b0494506000850361270c575b819350505050919050565b600073ffffffffffffffffffffffffffffffffffffffff168273ffffffffffffffffffffffffffffffffffffffff16036127db576040517f08c379a00000000000000000000000000000000000000000000000000000000081526004016127d290614523565b60405180910390fd5b6127e4816121f9565b15612824576040517f08c379a000000000000000000000000000000000000000000000000000000000815260040161281b9061458f565b60405180910390fd5b61283260008383600161223a565b61283b816121f9565b1561287b576040517f08c379a00000000000000000000000000000000000000000000000000000000081526004016128729061458f565b60405180910390fd5b6001600360008473ffffffffffffffffffffffffffffffffffffffff1673ffffffffffffffffffffffffffffffffffffffff16815260200190815260200160002060008282540192505081905550816002600083815260200190815260200160002060006101000a81548173ffffffffffffffffffffffffffffffffffffffff021916908373ffffffffffffffffffffffffffffffffffffffff160217905550808273ffffffffffffffffffffffffffffffffffffffff16600073ffffffffffffffffffffffffffffffffffffffff167fddf252ad1be2c89b69c2b068fc378daa952ba7f163c4a11628f55a4df523b3ef60405160405180910390a461298560008383600161224c565b5050565b6001811115612aa957600073ffffffffffffffffffffffffffffffffffffffff168473ffffffffffffffffffffffffffffffffffffffff1614612a1d5780600360008673ffffffffffffffffffffffffffffffffffffffff1673ffffffffffffffffffffffffffffffffffffffff1681526020019081526020016000206000828254612a1591906145af565b925050819055505b600073ffffffffffffffffffffffffffffffffffffffff168373ffffffffffffffffffffffffffffffffffffffff1614612aa85780600360008573ffffffffffffffffffffffffffffffffffffffff1673ffffffffffffffffffffffffffffffffffffffff1681526020019081526020016000206000828254612aa09190613f1c565b925050819055505b5b50505050565b6008805490506009600083815260200190815260200160002081905550600881908060018154018082558091505060019003906000526020600020016000909190919091505550565b60006001612b0584610f80565b612b0f91906145af565b9050600060076000848152602001908152602001600020549050818114612bf4576000600660008673ffffffffffffffffffffffffffffffffffffffff1673ffffffffffffffffffffffffffffffffffffffff168152602001908152602001600020600084815260200190815260200160002054905080600660008773ffffffffffffffffffffffffffffffffffffffff1673ffffffffffffffffffffffffffffffffffffffff168152602001908152602001600020600084815260200190815260200160002081905550816007600083815260200190815260200160002081905550505b6007600084815260200190815260200160002060009055600660008573ffffffffffffffffffffffffffffffffffffffff1673ffffffffffffffffffffffffffffffffffffffff16815260200190815260200160002060008381526020019081526020016000206000905550505050565b60006001600880549050612c7991906145af565b9050600060096000848152602001908152602001600020549050600060088381548110612ca957612ca86139c2565b5b906000526020600020015490508060088381548110612ccb57612cca6139c2565b5b906000526020600020018190555081600960008381526020019081526020016000208190555060096000858152602001908152602001600020600090556008805480612d1a57612d196145e3565b5b6001900381819060005260206000200160009055905550505050565b6000612d4183610f80565b905081600660008573ffffffffffffffffffffffffffffffffffffffff1673ffffffffffffffffffffffffffffffffffffffff168152602001908152602001600020600083815260200190815260200160002081905550806007600084815260200190815260200160002081905550505050565b600080600090507a184f03e93ff9f4daa797ed6e38ed64bf6a1f0100000000000000008310612e13577a184f03e93ff9f4daa797ed6e38ed64bf6a1f0100000000000000008381612e0957612e086139f1565b5b0492506040810190505b6d04ee2d6d415b85acef81000000008310612e50576d04ee2d6d415b85acef81000000008381612e4657612e456139f1565b5b0492506020810190505b662386f26fc100008310612e7f57662386f26fc100008381612e7557612e746139f1565b5b0492506010810190505b6305f5e1008310612ea8576305f5e1008381612e9e57612e9d6139f1565b5b0492506008810190505b6127108310612ecd576127108381612ec357612ec26139f1565b5b0492506004810190505b60648310612ef05760648381612ee657612ee56139f1565b5b0492506002810190505b600a8310612eff576001810190505b80915050919050565b6000604051905090565b600080fd5b600080fd5b60007fffffffff0000000000000000000000000000000000000000000000000000000082169050919050565b612f5181612f1c565b8114612f5c57600080fd5b50565b600081359050612f6e81612f48565b92915050565b600060208284031215612f8a57612f89612f12565b5b6000612f9884828501612f5f565b91505092915050565b60008115159050919050565b612fb681612fa1565b82525050565b6000602082019050612fd16000830184612fad565b92915050565b600081519050919050565b600082825260208201905092915050565b60005b83811015613011578082015181840152602081019050612ff6565b60008484015250505050565b6000601f19601f8301169050919050565b600061303982612fd7565b6130438185612fe2565b9350613053818560208601612ff3565b61305c8161301d565b840191505092915050565b60006020820190508181036000830152613081818461302e565b905092915050565b6000819050919050565b61309c81613089565b81146130a757600080fd5b50565b6000813590506130b981613093565b92915050565b6000602082840312156130d5576130d4612f12565b5b60006130e3848285016130aa565b91505092915050565b600073ffffffffffffffffffffffffffffffffffffffff82169050919050565b6000613117826130ec565b9050919050565b6131278161310c565b82525050565b6000602082019050613142600083018461311e565b92915050565b6131518161310c565b811461315c57600080fd5b50565b60008135905061316e81613148565b92915050565b6000806040838503121561318b5761318a612f12565b5b60006131998582860161315f565b92505060206131aa858286016130aa565b9150509250929050565b6131bd81613089565b82525050565b60006020820190506131d860008301846131b4565b92915050565b6000806000606084860312156131f7576131f6612f12565b5b60006132058682870161315f565b93505060206132168682870161315f565b9250506040613227868287016130aa565b9150509250925092565b60006020828403121561324757613246612f12565b5b60006132558482850161315f565b91505092915050565b600060a0820190508181036000830152613278818861302e565b905061328760208301876131b4565b613294604083018661311e565b6132a16060830185612fad565b6132ae60808301846131b4565b9695505050505050565b6132c181612fa1565b81146132cc57600080fd5b50565b6000813590506132de816132b8565b92915050565b600080604083850312156132fb576132fa612f12565b5b60006133098582860161315f565b925050602061331a858286016132cf565b9150509250929050565b600080fd5b600080fd5b7f4e487b7100000000000000000000000000000000000000000000000000000000600052604160045260246000fd5b6133668261301d565b810181811067ffffffffffffffff821117156133855761338461332e565b5b80604052505050565b6000613398612f08565b90506133a4828261335d565b919050565b600067ffffffffffffffff8211156133c4576133c361332e565b5b6133cd8261301d565b9050602081019050919050565b82818337600083830152505050565b60006133fc6133f7846133a9565b61338e565b90508281526020810184848401111561341857613417613329565b5b6134238482856133da565b509392505050565b600082601f8301126134405761343f613324565b5b81356134508482602086016133e9565b91505092915050565b6000806000806080858703121561347357613472612f12565b5b60006134818782880161315f565b94505060206134928782880161315f565b93505060406134a3878288016130aa565b925050606085013567ffffffffffffffff8111156134c4576134c3612f17565b5b6134d08782880161342b565b91505092959194509250565b600067ffffffffffffffff8211156134f7576134f661332e565b5b6135008261301d565b9050602081019050919050565b600061352061351b846134dc565b61338e565b90508281526020810184848401111561353c5761353b613329565b5b6135478482856133da565b509392505050565b600082601f83011261356457613563613324565b5b813561357484826020860161350d565b91505092915050565b60008060006060848603121561359657613595612f12565b5b600084013567ffffffffffffffff8111156135b4576135b3612f17565b5b6135c08682870161354f565b93505060206135d18682870161315f565b92505060406135e2868287016130aa565b9150509250925092565b6000806040838503121561360357613602612f12565b5b60006136118582860161315f565b925050602083013567ffffffffffffffff81111561363257613631612f17565b5b61363e8582860161354f565b9150509250929050565b6000806040838503121561365f5761365e612f12565b5b600061366d8582860161315f565b925050602061367e8582860161315f565b9150509250929050565b7f4e487b7100000000000000000000000000000000000000000000000000000000600052602260045260246000fd5b600060028204905060018216806136cf57607f821691505b6020821081036136e2576136e1613688565b5b50919050565b7f4552433732313a20617070726f76616c20746f2063757272656e74206f776e6560008201527f7200000000000000000000000000000000000000000000000000000000000000602082015250565b6000613744602183612fe2565b915061374f826136e8565b604082019050919050565b6000602082019050818103600083015261377381613737565b9050919050565b7f4552433732313a20617070726f76652063616c6c6572206973206e6f7420746f60008201527f6b656e206f776e6572206f7220617070726f76656420666f7220616c6c000000602082015250565b60006137d6603d83612fe2565b91506137e18261377a565b604082019050919050565b60006020820190508181036000830152613805816137c9565b9050919050565b7f4552433732313a2063616c6c6572206973206e6f7420746f6b656e206f776e6560008201527f72206f7220617070726f76656400000000000000000000000000000000000000602082015250565b6000613868602d83612fe2565b91506138738261380c565b604082019050919050565b600060208201905081810360008301526138978161385b565b9050919050565b7f455243373231456e756d657261626c653a206f776e657220696e646578206f7560008201527f74206f6620626f756e6473000000000000000000000000000000000000000000602082015250565b60006138fa602b83612fe2565b91506139058261389e565b604082019050919050565b60006020820190508181036000830152613929816138ed565b9050919050565b7f455243373231456e756d657261626c653a20676c6f62616c20696e646578206f60008201527f7574206f6620626f756e64730000000000000000000000000000000000000000602082015250565b600061398c602c83612fe2565b915061399782613930565b604082019050919050565b600060208201905081810360008301526139bb8161397f565b9050919050565b7f4e487b7100000000000000000000000000000000000000000000000000000000600052603260045260246000fd5b7f4e487b7100000000000000000000000000000000000000000000000000000000600052601260045260246000fd5b7f4e487b7100000000000000000000000000000000000000000000000000000000600052601160045260246000fd5b6000613a5a82613089565b9150613a6583613089565b925082613a7557613a746139f1565b5b828204905092915050565b7f4552433732313a20696e76616c696420746f6b656e2049440000000000000000600082015250565b6000613ab6601883612fe2565b9150613ac182613a80565b602082019050919050565b60006020820190508181036000830152613ae581613aa9565b9050919050565b6000613af782613089565b91507fffffffffffffffffffffffffffffffffffffffffffffffffffffffffffffffff8203613b2957613b28613a20565b5b600182019050919050565b7f4552433732313a2061646472657373207a65726f206973206e6f74206120766160008201527f6c6964206f776e65720000000000000000000000000000000000000000000000602082015250565b6000613b90602983612fe2565b9150613b9b82613b34565b604082019050919050565b60006020820190508181036000830152613bbf81613b83565b9050919050565b60008190508160005260206000209050919050565b60006020601f8301049050919050565b600082821b905092915050565b600060088302613c287fffffffffffffffffffffffffffffffffffffffffffffffffffffffffffffffff82613beb565b613c328683613beb565b95508019841693508086168417925050509392505050565b6000819050919050565b6000613c6f613c6a613c6584613089565b613c4a565b613089565b9050919050565b6000819050919050565b613c8983613c54565b613c9d613c9582613c76565b848454613bf8565b825550505050565b600090565b613cb2613ca5565b613cbd818484613c80565b505050565b5b81811015613ce157613cd6600082613caa565b600181019050613cc3565b5050565b601f821115613d2657613cf781613bc6565b613d0084613bdb565b81016020851015613d0f578190505b613d23613d1b85613bdb565b830182613cc2565b50505b505050565b600082821c905092915050565b6000613d4960001984600802613d2b565b1980831691505092915050565b6000613d628383613d38565b9150826002028217905092915050565b613d7b82612fd7565b67ffffffffffffffff811115613d9457613d9361332e565b5b613d9e82546136b7565b613da9828285613ce5565b600060209050601f831160018114613ddc5760008415613dca578287015190505b613dd48582613d56565b865550613e3c565b601f198416613dea86613bc6565b60005b82811015613e1257848901518255600182019150602085019450602081019050613ded565b86831015613e2f5784890151613e2b601f891682613d38565b8355505b6001600288020188555050505b505050505050565b7f4d6178204d696e74207065722077616c6c657420726561636865640000000000600082015250565b6000613e7a601b83612fe2565b9150613e8582613e44565b602082019050919050565b60006020820190508181036000830152613ea981613e6d565b9050919050565b7f49276d20736f7272792077652072656163686564207468652063617000000000600082015250565b6000613ee6601c83612fe2565b9150613ef182613eb0565b602082019050919050565b60006020820190508181036000830152613f1581613ed9565b9050919050565b6000613f2782613089565b9150613f3283613089565b9250828201905080821115613f4a57613f49613a20565b5b92915050565b7f4f776e61626c653a206e6577206f776e657220697320746865207a65726f206160008201527f6464726573730000000000000000000000000000000000000000000000000000602082015250565b6000613fac602683612fe2565b9150613fb782613f50565b604082019050919050565b60006020820190508181036000830152613fdb81613f9f565b9050919050565b7f4552433732313a207472616e736665722066726f6d20696e636f72726563742060008201527f6f776e6572000000000000000000000000000000000000000000000000000000602082015250565b600061403e602583612fe2565b915061404982613fe2565b604082019050919050565b6000602082019050818103600083015261406d81614031565b9050919050565b7f4552433732313a207472616e7366657220746f20746865207a65726f2061646460008201527f7265737300000000000000000000000000000000000000000000000000000000602082015250565b60006140d0602483612fe2565b91506140db82614074565b604082019050919050565b600060208201905081810360008301526140ff816140c3565b9050919050565b7f4f776e61626c653a2063616c6c6572206973206e6f7420746865206f776e6572600082015250565b600061413c602083612fe2565b915061414782614106565b602082019050919050565b6000602082019050818103600083015261416b8161412f565b9050919050565b7f4552433732313a20617070726f766520746f2063616c6c657200000000000000600082015250565b60006141a8601983612fe2565b91506141b382614172565b602082019050919050565b600060208201905081810360008301526141d78161419b565b9050919050565b7f4552433732313a207472616e7366657220746f206e6f6e20455243373231526560008201527f63656976657220696d706c656d656e7465720000000000000000000000000000602082015250565b600061423a603283612fe2565b9150614245826141de565b604082019050919050565b600060208201905081810360008301526142698161422d565b9050919050565b600081905092915050565b600061428682612fd7565b6142908185614270565b93506142a0818560208601612ff3565b80840191505092915050565b60006142b8828561427b565b91506142c4828461427b565b91508190509392505050565b7f45524337323155524953746f726167653a2055524920736574206f66206e6f6e60008201527f6578697374656e7420746f6b656e000000000000000000000000000000000000602082015250565b600061432c602e83612fe2565b9150614337826142d0565b604082019050919050565b6000602082019050818103600083015261435b8161431f565b9050919050565b600081519050919050565b600082825260208201905092915050565b600061438982614362565b614393818561436d565b93506143a3818560208601612ff3565b6143ac8161301d565b840191505092915050565b60006080820190506143cc600083018761311e565b6143d9602083018661311e565b6143e660408301856131b4565b81810360608301526143f8818461437e565b905095945050505050565b60008151905061441281612f48565b92915050565b60006020828403121561442e5761442d612f12565b5b600061443c84828501614403565b91505092915050565b7f455243373231456e756d657261626c653a20636f6e736563757469766520747260008201527f616e7366657273206e6f7420737570706f727465640000000000000000000000602082015250565b60006144a1603583612fe2565b91506144ac82614445565b604082019050919050565b600060208201905081810360008301526144d081614494565b9050919050565b7f4552433732313a206d696e7420746f20746865207a65726f2061646472657373600082015250565b600061450d602083612fe2565b9150614518826144d7565b602082019050919050565b6000602082019050818103600083015261453c81614500565b9050919050565b7f4552433732313a20746f6b656e20616c7265616479206d696e74656400000000600082015250565b6000614579601c83612fe2565b915061458482614543565b602082019050919050565b600060208201905081810360008301526145a88161456c565b9050919050565b60006145ba82613089565b91506145c583613089565b92508282039050818111156145dd576145dc613a20565b5b92915050565b7f4e487b7100000000000000000000000000000000000000000000000000000000600052603160045260246000fdfea26469706673582212209c158eb0ef4565e3c3e94b5960ca7486f4e4c1961213825007d67663c78b3a8464736f6c63430008110033",
  "immutableReferences": {},
  "source": "//SPDX-License-Identifier: MIT\npragma solidity 0.8.17;\n\nimport \"../node_modules/@openzeppelin/contracts/token/ERC721/ERC721.sol\";\nimport \"../node_modules/@openzeppelin/contracts/token/ERC721/extensions/ERC721Enumerable.sol\";\nimport \"../node_modules/@openzeppelin/contracts/token/ERC721/extensions/ERC721URIStorage.sol\";\nimport \"../node_modules/@openzeppelin/contracts/access/Ownable.sol\";\nimport \"../node_modules/@openzeppelin/contracts/utils/Counters.sol\";\n\ncontract TYF is ERC721, ERC721Enumerable, ERC721URIStorage, Ownable {\n    using Counters for Counters.Counter;\n    Counters.Counter private _tokenIdCounter;\n    uint256 public MAX_SUPPLY = 1000000; // Max supply of NFT\n    uint256 public MAX_SUPPLY_USER = 2; // per user\n    mapping(address => uint256) public contributions;\n    uint256 public totalContributors;\n    uint256 public minimumContribution;\n    uint256 public raisedAmount = 0;\n    address public admin;\n    struct Request {\n        string description;\n        uint256 value;\n        address recipient;\n        bool completed;\n        uint256 numberOfVoters;\n        mapping(address => bool) voters;\n    }\n    Request[] public requests;\n\n    modifier onlyAdmin() {\n        require(msg.sender == admin);\n        _;\n    }\n\n    modifier contributor() {\n        require(contributions[msg.sender] > 0);\n        _;\n    }\n\n    constructor() ERC721(\"TYF-NFT\", \"TYF\"){\n        minimumContribution = 0;\n        admin = msg.sender;\n        _tokenIdCounter.increment(); // Start mint at ID 1\n    }\n\n    function safeMint(address to, string memory uri) public contributor {\n        require(balanceOf(msg.sender) < MAX_SUPPLY_USER, \"Max Mint per wallet reached\");\n        require(_tokenIdCounter.current() <= (MAX_SUPPLY), \"I'm sorry we reached the cap\");\n        uint256 tokenId = _tokenIdCounter.current();\n        _safeMint(to, tokenId);\n        _setTokenURI(tokenId, uri);\n        _tokenIdCounter.increment();\n    }\n\n    function contribute() public payable {\n        require(msg.value > minimumContribution);\n        if (contributions[msg.sender] == 0) {\n            totalContributors++;\n        }\n        contributions[msg.sender] += msg.value;\n        raisedAmount += msg.value;\n    }\n\n    function getFundBalance() public view returns (uint256) {\n        return address(this).balance;\n    }\n\n    function getTotalFundsRaised() public view returns (uint256) {\n        return raisedAmount;\n    }\n\n    function getUniqueContributors() public view returns (uint256) {\n        return totalContributors;\n    }\n\n    function getLengthRequests() public view returns (uint256) {\n        return requests.length;\n    }\n\n    function createSpendingRequest(\n        string memory _description,\n        address _recipient,\n        uint256 _value\n    ) public onlyAdmin {\n        Request storage newRequest = requests.push();\n        newRequest.description = _description;\n        newRequest.value = _value;\n        newRequest.recipient = _recipient;\n        newRequest.numberOfVoters = 0;\n        newRequest.completed = false;\n    }\n\n    function voteForRequest(uint256 index) public contributor {\n        Request storage thisRequest = requests[index];\n        require(thisRequest.voters[msg.sender] == false);\n        thisRequest.voters[msg.sender] = true;\n        thisRequest.numberOfVoters++;\n    }\n\n    function makePayment(uint256 index) public onlyAdmin {\n        Request storage thisRequest = requests[index];\n        require(thisRequest.completed == false);\n        require(thisRequest.numberOfVoters > totalContributors / 2); //more than 50% voted\n        payable(thisRequest.recipient).transfer(thisRequest.value);\n        thisRequest.completed = true;\n    }\n\n    // The following functions are overrides required by Solidity.\n    function _beforeTokenTransfer(address from, address to, uint256 tokenId, uint256 batchSize) internal override(ERC721, ERC721Enumerable) {\n        super._beforeTokenTransfer(from, to, tokenId, batchSize);\n    }\n\n    function _burn(uint256 tokenId) internal override(ERC721, ERC721URIStorage) {\n        super._burn(tokenId);\n    }\n\n    function tokenURI(uint256 tokenId) public view override(ERC721, ERC721URIStorage) returns (string memory) {\n        return super.tokenURI(tokenId);\n    }\n\n    function supportsInterface(bytes4 interfaceId) public view override(ERC721, ERC721Enumerable) returns (bool) {\n        return super.supportsInterface(interfaceId);\n    }\n}\n",
  "sourcePath": "/Users/naman/n/UBcourses/Blockchain 526/blockchain-D-app/tyf-contract/contracts/TYF.sol",
  "compiler": {
    "name": "solc",
    "version": "0.8.17+commit.8df45f5f.Emscripten.clang"
  },
  "schemaVersion": "3.4.10",
  "updatedAt": "2022-12-08T21:20:49.718Z",
  "networkType": "ethereum",
  "devdoc": {
    "kind": "dev",
    "methods": {
      "approve(address,uint256)": {
        "details": "See {IERC721-approve}."
      },
      "balanceOf(address)": {
        "details": "See {IERC721-balanceOf}."
      },
      "getApproved(uint256)": {
        "details": "See {IERC721-getApproved}."
      },
      "isApprovedForAll(address,address)": {
        "details": "See {IERC721-isApprovedForAll}."
      },
      "name()": {
        "details": "See {IERC721Metadata-name}."
      },
      "owner()": {
        "details": "Returns the address of the current owner."
      },
      "ownerOf(uint256)": {
        "details": "See {IERC721-ownerOf}."
      },
      "renounceOwnership()": {
        "details": "Leaves the contract without owner. It will not be possible to call `onlyOwner` functions anymore. Can only be called by the current owner. NOTE: Renouncing ownership will leave the contract without an owner, thereby removing any functionality that is only available to the owner."
      },
      "safeTransferFrom(address,address,uint256)": {
        "details": "See {IERC721-safeTransferFrom}."
      },
      "safeTransferFrom(address,address,uint256,bytes)": {
        "details": "See {IERC721-safeTransferFrom}."
      },
      "setApprovalForAll(address,bool)": {
        "details": "See {IERC721-setApprovalForAll}."
      },
      "symbol()": {
        "details": "See {IERC721Metadata-symbol}."
      },
      "tokenByIndex(uint256)": {
        "details": "See {IERC721Enumerable-tokenByIndex}."
      },
      "tokenOfOwnerByIndex(address,uint256)": {
        "details": "See {IERC721Enumerable-tokenOfOwnerByIndex}."
      },
      "totalSupply()": {
        "details": "See {IERC721Enumerable-totalSupply}."
      },
      "transferFrom(address,address,uint256)": {
        "details": "See {IERC721-transferFrom}."
      },
      "transferOwnership(address)": {
        "details": "Transfers ownership of the contract to a new account (`newOwner`). Can only be called by the current owner."
      }
    },
    "version": 1
  },
  "userdoc": {
    "kind": "user",
    "methods": {},
    "version": 1
  }
}