{
  "contractName": "TYF",
  "abi": [
    {
      "inputs": [],
      "stateMutability": "nonpayable",
      "type": "constructor"
    },
    {
      "inputs": [],
      "name": "admin",
      "outputs": [
        {
          "internalType": "address",
          "name": "",
          "type": "address"
        }
      ],
      "stateMutability": "view",
      "type": "function"
    },
    {
      "inputs": [
        {
          "internalType": "address",
          "name": "",
          "type": "address"
        }
      ],
      "name": "contributions",
      "outputs": [
        {
          "internalType": "uint256",
          "name": "",
          "type": "uint256"
        }
      ],
      "stateMutability": "view",
      "type": "function"
    },
    {
      "inputs": [],
      "name": "minimumContribution",
      "outputs": [
        {
          "internalType": "uint256",
          "name": "",
          "type": "uint256"
        }
      ],
      "stateMutability": "view",
      "type": "function"
    },
    {
      "inputs": [],
      "name": "raisedAmount",
      "outputs": [
        {
          "internalType": "uint256",
          "name": "",
          "type": "uint256"
        }
      ],
      "stateMutability": "view",
      "type": "function"
    },
    {
      "inputs": [
        {
          "internalType": "uint256",
          "name": "",
          "type": "uint256"
        }
      ],
      "name": "requests",
      "outputs": [
        {
          "internalType": "string",
          "name": "description",
          "type": "string"
        },
        {
          "internalType": "uint256",
          "name": "value",
          "type": "uint256"
        },
        {
          "internalType": "address",
          "name": "recipient",
          "type": "address"
        },
        {
          "internalType": "bool",
          "name": "completed",
          "type": "bool"
        },
        {
          "internalType": "uint256",
          "name": "numberOfVoters",
          "type": "uint256"
        }
      ],
      "stateMutability": "view",
      "type": "function"
    },
    {
      "inputs": [],
      "name": "totalContributors",
      "outputs": [
        {
          "internalType": "uint256",
          "name": "",
          "type": "uint256"
        }
      ],
      "stateMutability": "view",
      "type": "function"
    },
    {
      "inputs": [],
      "name": "contribute",
      "outputs": [],
      "stateMutability": "payable",
      "type": "function"
    },
    {
      "inputs": [],
      "name": "getFundBalance",
      "outputs": [
        {
          "internalType": "uint256",
          "name": "",
          "type": "uint256"
        }
      ],
      "stateMutability": "view",
      "type": "function"
    },
    {
      "inputs": [],
      "name": "getTotalFundsRaised",
      "outputs": [
        {
          "internalType": "uint256",
          "name": "",
          "type": "uint256"
        }
      ],
      "stateMutability": "view",
      "type": "function"
    },
    {
      "inputs": [],
      "name": "getUniqueContributors",
      "outputs": [
        {
          "internalType": "uint256",
          "name": "",
          "type": "uint256"
        }
      ],
      "stateMutability": "view",
      "type": "function"
    },
    {
      "inputs": [],
      "name": "getLengthRequests",
      "outputs": [
        {
          "internalType": "uint256",
          "name": "",
          "type": "uint256"
        }
      ],
      "stateMutability": "view",
      "type": "function"
    },
    {
      "inputs": [
        {
          "internalType": "string",
          "name": "_description",
          "type": "string"
        },
        {
          "internalType": "address",
          "name": "_recipient",
          "type": "address"
        },
        {
          "internalType": "uint256",
          "name": "_value",
          "type": "uint256"
        }
      ],
      "name": "createSpendingRequest",
      "outputs": [],
      "stateMutability": "nonpayable",
      "type": "function"
    },
    {
      "inputs": [
        {
          "internalType": "uint256",
          "name": "index",
          "type": "uint256"
        }
      ],
      "name": "voteForRequest",
      "outputs": [],
      "stateMutability": "nonpayable",
      "type": "function"
    },
    {
      "inputs": [
        {
          "internalType": "uint256",
          "name": "index",
          "type": "uint256"
        }
      ],
      "name": "makePayment",
      "outputs": [],
      "stateMutability": "nonpayable",
      "type": "function"
    }
  ],
  "bytecode": "0x6080604052600060035534801561001557600080fd5b50600060028190555033600460006101000a81548173ffffffffffffffffffffffffffffffffffffffff021916908373ffffffffffffffffffffffffffffffffffffffff16021790555061117c8061006e6000396000f3fe6080604052600436106100dd5760003560e01c8063be66fc911161007f578063d7bb99ba11610059578063d7bb99ba146102b2578063dae9e379146102bc578063f251fc8c146102e7578063f851a44014610312576100dd565b8063be66fc9114610233578063c59ee1dc1461025e578063d01ca19214610289576100dd565b8063700127ef116100bb578063700127ef1461017357806381d12c581461019c578063937e09b1146101dd578063a87e77bb14610208576100dd565b80630c3e2d2d146100e257806342e94c901461010d5780635114cb521461014a575b600080fd5b3480156100ee57600080fd5b506100f761033d565b6040516101049190610948565b60405180910390f35b34801561011957600080fd5b50610134600480360381019061012f91906109d5565b610347565b6040516101419190610948565b60405180910390f35b34801561015657600080fd5b50610171600480360381019061016c9190610a2e565b61035f565b005b34801561017f57600080fd5b5061019a60048036038101906101959190610a2e565b6104af565b005b3480156101a857600080fd5b506101c360048036038101906101be9190610a2e565b6105f7565b6040516101d4959493929190610b15565b60405180910390f35b3480156101e957600080fd5b506101f26106f2565b6040516101ff9190610948565b60405180910390f35b34801561021457600080fd5b5061021d6106f8565b60405161022a9190610948565b60405180910390f35b34801561023f57600080fd5b50610248610702565b6040516102559190610948565b60405180910390f35b34801561026a57600080fd5b5061027361070f565b6040516102809190610948565b60405180910390f35b34801561029557600080fd5b506102b060048036038101906102ab9190610ca4565b610715565b005b6102ba61081e565b005b3480156102c857600080fd5b506102d16108fb565b6040516102de9190610948565b60405180910390f35b3480156102f357600080fd5b506102fc610903565b6040516103099190610948565b60405180910390f35b34801561031e57600080fd5b50610327610909565b6040516103349190610d13565b60405180910390f35b6000600354905090565b60006020528060005260406000206000915090505481565b600460009054906101000a900473ffffffffffffffffffffffffffffffffffffffff1673ffffffffffffffffffffffffffffffffffffffff163373ffffffffffffffffffffffffffffffffffffffff16146103b957600080fd5b6000600582815481106103cf576103ce610d2e565b5b90600052602060002090600502019050600015158160020160149054906101000a900460ff1615151461040157600080fd5b60026001546104109190610dbb565b81600301541161041f57600080fd5b8060020160009054906101000a900473ffffffffffffffffffffffffffffffffffffffff1673ffffffffffffffffffffffffffffffffffffffff166108fc82600101549081150290604051600060405180830381858888f1935050505015801561048d573d6000803e3d6000fd5b5060018160020160146101000a81548160ff0219169083151502179055505050565b6000600582815481106104c5576104c4610d2e565b5b9060005260206000209060050201905060008060003373ffffffffffffffffffffffffffffffffffffffff1673ffffffffffffffffffffffffffffffffffffffff168152602001908152602001600020541161052057600080fd5b600015158160040160003373ffffffffffffffffffffffffffffffffffffffff1673ffffffffffffffffffffffffffffffffffffffff16815260200190815260200160002060009054906101000a900460ff1615151461057f57600080fd5b60018160040160003373ffffffffffffffffffffffffffffffffffffffff1673ffffffffffffffffffffffffffffffffffffffff16815260200190815260200160002060006101000a81548160ff0219169083151502179055508060030160008154809291906105ee90610dec565b91905055505050565b6005818154811061060757600080fd5b906000526020600020906005020160009150905080600001805461062a90610e63565b80601f016020809104026020016040519081016040528092919081815260200182805461065690610e63565b80156106a35780601f10610678576101008083540402835291602001916106a3565b820191906000526020600020905b81548152906001019060200180831161068657829003601f168201915b5050505050908060010154908060020160009054906101000a900473ffffffffffffffffffffffffffffffffffffffff16908060020160149054906101000a900460ff16908060030154905085565b60025481565b6000600154905090565b6000600580549050905090565b60035481565b600460009054906101000a900473ffffffffffffffffffffffffffffffffffffffff1673ffffffffffffffffffffffffffffffffffffffff163373ffffffffffffffffffffffffffffffffffffffff161461076f57600080fd5b600060056001816001815401808255809150500390600052602060002090600502019050838160000190816107a49190611040565b50818160010181905550828160020160006101000a81548173ffffffffffffffffffffffffffffffffffffffff021916908373ffffffffffffffffffffffffffffffffffffffff1602179055506000816003018190555060008160020160146101000a81548160ff02191690831515021790555050505050565b600254341161082c57600080fd5b60008060003373ffffffffffffffffffffffffffffffffffffffff1673ffffffffffffffffffffffffffffffffffffffff168152602001908152602001600020540361088b576001600081548092919061088590610dec565b91905055505b346000803373ffffffffffffffffffffffffffffffffffffffff1673ffffffffffffffffffffffffffffffffffffffff16815260200190815260200160002060008282546108d99190611112565b9250508190555034600360008282546108f29190611112565b92505081905550565b600047905090565b60015481565b600460009054906101000a900473ffffffffffffffffffffffffffffffffffffffff1681565b6000819050919050565b6109428161092f565b82525050565b600060208201905061095d6000830184610939565b92915050565b6000604051905090565b600080fd5b600080fd5b600073ffffffffffffffffffffffffffffffffffffffff82169050919050565b60006109a282610977565b9050919050565b6109b281610997565b81146109bd57600080fd5b50565b6000813590506109cf816109a9565b92915050565b6000602082840312156109eb576109ea61096d565b5b60006109f9848285016109c0565b91505092915050565b610a0b8161092f565b8114610a1657600080fd5b50565b600081359050610a2881610a02565b92915050565b600060208284031215610a4457610a4361096d565b5b6000610a5284828501610a19565b91505092915050565b600081519050919050565b600082825260208201905092915050565b60005b83811015610a95578082015181840152602081019050610a7a565b60008484015250505050565b6000601f19601f8301169050919050565b6000610abd82610a5b565b610ac78185610a66565b9350610ad7818560208601610a77565b610ae081610aa1565b840191505092915050565b610af481610997565b82525050565b60008115159050919050565b610b0f81610afa565b82525050565b600060a0820190508181036000830152610b2f8188610ab2565b9050610b3e6020830187610939565b610b4b6040830186610aeb565b610b586060830185610b06565b610b656080830184610939565b9695505050505050565b600080fd5b600080fd5b7f4e487b7100000000000000000000000000000000000000000000000000000000600052604160045260246000fd5b610bb182610aa1565b810181811067ffffffffffffffff82111715610bd057610bcf610b79565b5b80604052505050565b6000610be3610963565b9050610bef8282610ba8565b919050565b600067ffffffffffffffff821115610c0f57610c0e610b79565b5b610c1882610aa1565b9050602081019050919050565b82818337600083830152505050565b6000610c47610c4284610bf4565b610bd9565b905082815260208101848484011115610c6357610c62610b74565b5b610c6e848285610c25565b509392505050565b600082601f830112610c8b57610c8a610b6f565b5b8135610c9b848260208601610c34565b91505092915050565b600080600060608486031215610cbd57610cbc61096d565b5b600084013567ffffffffffffffff811115610cdb57610cda610972565b5b610ce786828701610c76565b9350506020610cf8868287016109c0565b9250506040610d0986828701610a19565b9150509250925092565b6000602082019050610d286000830184610aeb565b92915050565b7f4e487b7100000000000000000000000000000000000000000000000000000000600052603260045260246000fd5b7f4e487b7100000000000000000000000000000000000000000000000000000000600052601260045260246000fd5b7f4e487b7100000000000000000000000000000000000000000000000000000000600052601160045260246000fd5b6000610dc68261092f565b9150610dd18361092f565b925082610de157610de0610d5d565b5b828204905092915050565b6000610df78261092f565b91507fffffffffffffffffffffffffffffffffffffffffffffffffffffffffffffffff8203610e2957610e28610d8c565b5b600182019050919050565b7f4e487b7100000000000000000000000000000000000000000000000000000000600052602260045260246000fd5b60006002820490506001821680610e7b57607f821691505b602082108103610e8e57610e8d610e34565b5b50919050565b60008190508160005260206000209050919050565b60006020601f8301049050919050565b600082821b905092915050565b600060088302610ef67fffffffffffffffffffffffffffffffffffffffffffffffffffffffffffffffff82610eb9565b610f008683610eb9565b95508019841693508086168417925050509392505050565b6000819050919050565b6000610f3d610f38610f338461092f565b610f18565b61092f565b9050919050565b6000819050919050565b610f5783610f22565b610f6b610f6382610f44565b848454610ec6565b825550505050565b600090565b610f80610f73565b610f8b818484610f4e565b505050565b5b81811015610faf57610fa4600082610f78565b600181019050610f91565b5050565b601f821115610ff457610fc581610e94565b610fce84610ea9565b81016020851015610fdd578190505b610ff1610fe985610ea9565b830182610f90565b50505b505050565b600082821c905092915050565b600061101760001984600802610ff9565b1980831691505092915050565b60006110308383611006565b9150826002028217905092915050565b61104982610a5b565b67ffffffffffffffff81111561106257611061610b79565b5b61106c8254610e63565b611077828285610fb3565b600060209050601f8311600181146110aa5760008415611098578287015190505b6110a28582611024565b86555061110a565b601f1984166110b886610e94565b60005b828110156110e0578489015182556001820191506020850194506020810190506110bb565b868310156110fd57848901516110f9601f891682611006565b8355505b6001600288020188555050505b505050505050565b600061111d8261092f565b91506111288361092f565b92508282019050808211156111405761113f610d8c565b5b9291505056fea264697066735822122043100973bcef82b811890c293744cfc028ce1524c6c8bdb3d86feb7e7e79294264736f6c63430008110033",
  "immutableReferences": {},
  "source": "//SPDX-License-Identifier: UNLICENSED\npragma solidity 0.8.17;\n\ncontract TYF {\n\n    mapping(address => uint256) public contributions;\n    uint256 public totalContributors;\n    uint256 public minimumContribution;\n    uint256 public raisedAmount = 0;\n    address public admin;\n    struct Request {\n        string description;\n        uint256 value;\n        address recipient;\n        bool completed;\n        uint256 numberOfVoters;\n        mapping(address => bool) voters;\n    }\n    Request[] public requests;\n\n    constructor() {\n        minimumContribution = 0;\n        admin = msg.sender;\n    }\n\n    modifier onlyAdmin() {\n        require(msg.sender == admin);\n        _;\n    }\n\n    function contribute() public payable {\n        require(msg.value > minimumContribution);\n        if (contributions[msg.sender] == 0) {\n            totalContributors++;\n        }\n        contributions[msg.sender] += msg.value;\n        raisedAmount += msg.value;\n    }\n\n    function getFundBalance() public view returns (uint256) {\n        return address(this).balance;\n    }\n\n    function getTotalFundsRaised() public view returns (uint256) {\n        return raisedAmount;\n    }\n\n    function getUniqueContributors() public view returns (uint256) {\n        return totalContributors;\n    }\n\n    function getLengthRequests() public view returns (uint256) {\n        return requests.length;\n    }\n\n    function createSpendingRequest(\n        string memory _description,\n        address _recipient,\n        uint256 _value\n    ) public onlyAdmin {\n        Request storage newRequest = requests.push();\n        newRequest.description = _description;\n        newRequest.value = _value;\n        newRequest.recipient = _recipient;\n        newRequest.numberOfVoters = 0;\n        newRequest.completed = false;\n    }\n\n    function voteForRequest(uint256 index) public {\n        Request storage thisRequest = requests[index];\n        require(contributions[msg.sender] > 0);\n        require(thisRequest.voters[msg.sender] == false);\n        thisRequest.voters[msg.sender] = true;\n        thisRequest.numberOfVoters++;\n    }\n\n    function makePayment(uint256 index) public onlyAdmin {\n        Request storage thisRequest = requests[index];\n        require(thisRequest.completed == false);\n        require(thisRequest.numberOfVoters > totalContributors / 2); //more than 50% voted\n        payable(thisRequest.recipient).transfer(thisRequest.value);\n        thisRequest.completed = true;\n    }\n}\n",
  "sourcePath": "/Users/naman/n/UBcourses/Blockchain 526/blockchain-D-app/tyf-contract/contracts/TYF.sol",
  "compiler": {
    "name": "solc",
    "version": "0.8.17+commit.8df45f5f.Emscripten.clang"
  },
  "schemaVersion": "3.4.10",
  "updatedAt": "2022-12-07T08:00:03.866Z",
  "devdoc": {
    "kind": "dev",
    "methods": {},
    "version": 1
  },
  "userdoc": {
    "kind": "user",
    "methods": {},
    "version": 1
  }
}